:020000040800F2
:100000000050002021020008290200082D020008EB
:10001000A1020008A5020008ED020008000000008F
:1000200000000000000000000000000001120008B5
:10003000390300080000000061120008A512000842
:100040005103000851030008510300085103000840
:100050005103000851030008510300085103000830
:100060005103000851030008510300085103000820
:100070005103000851030008510300085103000810
:100080005103000851030008510300085103000800
:1000900051030008510300085103000851030008F0
:1000A00051030008510300085103000851030008E0
:1000B000510300085103000800000000510300082C
:1000C0005103000800000000000000005103000878
:1000D0000000000051030008510300080000000068
:1000E00051030008510300085103000800000000FC
:1000F0000000000000000000000000000000000000
:1001000000000000000000005FF808F100B583B0B7
:1001100000F0B0F9304B314A1360314A1360314B73
:10012000314A03E011681960043304322F498B42CD
:10013000F8D32A4B1A682E4B9A4204D1284B1A68DE
:100140002C4B9A4200D0FEE7234B2B4A13602B4ADC
:1001500013602B4B02E000221A600433294A9342B9
:10016000F9D3254B1B6813B9244B1B6803B1FEE779
:1001700000F08CF9694601A800F026F9224C234BC7
:100180001C1BA410002504E01F4B53F82530984792
:100190000135AC42F8DC1E4C1E4B1C1BA410002584
:1001A00004E01B4B53F8253098470135AC42F8DC8E
:1001B0000099019800F0CCFE0546174C174B1C1B0C
:1001C000A41004E0013C144B53F824309847002C51
:1001D000F8DC284600F0D4F8BABADECA00000020E5
:1001E000A800002000000020C8280008AC00002063
:1001F0007856341232547698B000002048480020D7
:10020000B00000204C4800207C0300087C0300085C
:100210007C0300087C0300087C0300087C030008C2
:1002200008B5FFF773FF00BF00BEFEE71EF0040F26
:100230000CBFEFF30880EFF309807146414A104785
:100240002DE9F04182B004468846134B5E6B9F6BEC
:100250009D6A1B6B13F0020F0DD00F4BDB6A002B56
:1002600009DA4BF6AB6100F08DF920B14FF0004296
:10027000094BDA620CE0094800F0AEF8CDF80080D6
:100280003B4632462946204600F004F900BEFEE710
:1002900002B0BDE8F08100BF00ED00E06827000873
:1002A00000BEFEE71EF0040F0CBFEFF30880EFF373
:1002B00009807146244A10472DE9F04182B0044676
:1002C0008846084B5E6B9F6B9D6A074800F084F878
:1002D000CDF800803B4632462946204600F0DAF849
:1002E00000BEFEE700ED00E0782700081EF0040FD6
:1002F0000CBFEFF30880EFF309807146134A1047F3
:100300002DE9F04182B004468846084B5E6B9F6B36
:100310009D6A074800F060F8CDF800803B46324601
:100320002946204600F0B6F800BEFEE700ED00E0EA
:100330008427000800BEFEE700BEFEE700BEFEE721
:100340007047000041020008B902000801030008DC
:0403500000BEFEE706
:10035400C828000800000020AC000020C8280008BD
:100364000000000000000000B00000204C48002005
:08037400000000000000000081
:10038000FEE700BF08B50D4B1B6813B90C4A0B4BB9
:100390001A600A4B1A68C31C23F00303134409496B
:1003A0008B4206D901F008FD0C2303604FF0FF30AB
:1003B00008BD02490B60104608BD00BFB400002014
:1003C0004C480020004C002001230360014B0B60CF
:1003D000704700BF040000200FB400B583B004AB29
:1003E00053F8042B01938021064801F021FD0028D9
:1003F00003DD0146034800F039F803B05DF804EB73
:1004000004B07047BC0000202DE9F04385B00446DD
:100410000F46435613BB042528462146ABBE04466F
:100420001FE03546102E28BF1025002306E014F9E2
:10043000011B04AA1A4402F8101C0133AB42F6D384
:1004400004AA1344002203F8102CE9464FF00408D4
:1004500040464946ABBE8046761B00E00E46002E65
:10046000DFD1384605B0BDE8F08300BF08B5FFF71F
:10047000CBFF08BD08B500F0FBF8024B024A9A60BA
:1004800008BD00BF00ED00E00000000808B500F066
:1004900017F908BDF8B504460D4617461E4626480E
:1004A000FFF79AFF21682548FFF796FF6168244807
:1004B000FFF792FFA1682348FFF78EFFE16822480B
:1004C000FFF78AFF21692148FFF786FF616920480D
:1004D000FFF782FFA1691F48FFF77EFFE1691E4811
:1004E000FFF77AFF1D48FFF777FF29461C48FFF703
:1004F00073FF1C4CE16A1C48FFF76EFF216B1B4821
:10050000FFF76AFFE16B1A48FFF766FF15F0800FEF
:1005100003D039461748FFF75FFF15F4004F03D0AB
:1005200031461548FFF758FF1448FFF755FF069965
:100530001348FFF751FFF8BD4C2600085C26000861
:100540006C2600087C2600088C2600089C260008E3
:10055000AC260008BC260008CC260008DC260008D3
:10056000E826000800ED00E0F8260008082700084B
:1005700018270008282700083827000848270008FF
:100580005027000883691A888A4207D10268033A13
:10059000012A05D80233836101207047002070478B
:1005A0000020704782B00023019300932C4A136807
:1005B00043F4803313602A4B1B6803F40033009329
:1005C000019B01330193009B1BB9019BB3F5A06F05
:1005D000F1D1234B1B6813F4003F02D00123009399
:1005E00001E000230093009B012B36D11D4B1A68BC
:1005F00042F010021A601A6822F003021A601A68A8
:1006000042F002021A60A3F580535A685A605A6891
:100610005A605A6842F480625A605A6822F47C1226
:100620005A605A6842F4E8125A601A6842F08072BE
:100630001A600B4B1B6813F0007FFAD0084B5A6806
:1006400022F003025A605A6842F002025A60044BD8
:100650005B6803F00C03082BF9D102B0704700BFB0
:10066000001002400020024008B5FFF79BFF08BDC4
:1006700008B5104B1A6842F001021A6059680E4A18
:100680000A405A601A6822F0847222F480321A609A
:100690001A6822F480221A605A6822F4FE025A6014
:1006A0004FF41F029A60FFF7DFFF4FF00062034B29
:1006B0009A6008BD001002400000FFF800ED00E065
:1006C0001F4B5B6803F00C03042B06D0082B08D0EB
:1006D0003BBB1C4A1C4B1A6026E01A4A1A4B1A6094
:1006E00022E0174A53685268C3F38343023312F47B
:1006F000803F05D1154A02FB03F3134A136013E050
:100700000F4A526812F4003F05D0104A02FB03F36F
:100710000D4A136008E00B4A02FB03F30A4A136018
:1007200002E0084A084B1A60054B5B68C3F30313E9
:10073000074AD35CDAB204490B68D3400B607047B8
:100740000010024000127A001C00002000093D0049
:100750000C000020037A04E002680021D154013328
:10076000DBB2072BF8D90823836070470123037499
:10077000002380F838308361C3630362C361438020
:10078000038043614362704701230374022380F8AE
:10079000383000238361C3630362C36143800380F5
:1007A00043614362704700BF00207047094B1B78CC
:1007B00013B90C21116008E0012B02D10521116051
:1007C00003E0022B01D1002111600133014A1370B3
:1007D000002070473D01002070B5002415E00E4E4A
:1007E00065002A195300334458880C4B03EB8010E2
:1007F000FFF7CAFF25446B0033445888084B03EBCE
:100800008010FFF7B3FF0134A4B2012CE7D9012215
:10081000044B1A7070BD00BF3000002078470020E4
:10082000784600203E010020314B03EB8013314A13
:100830001A63314B1B78002B4FD000294FD0012871
:100840004FD82B4B03EB80131B7C012B4BD110B4E7
:100850008A68274B03EB80139A61032183F83810D1
:100860000021596300EB8003244901EBC3035B7E45
:10087000042B01D013B102E0072400E00624A242B9
:1008800001D8012100E00221012902D002290CD067
:100890002BE0174B03EB801001234363154B1A70B9
:1008A000C26206230374002020E0042B01D013B1A0
:1008B00002E0062400E005240D4B03EB8010C2F398
:1008C00003230C4943F010030B70022343634A7067
:1008D000C46206230374002008E001207047012051
:1008E00070470120704701207047012010BC7047FD
:1008F00078470020704600203E010020982700081D
:1009000010B5104B03EB801200EB8003DC000E4BA4
:1009100023440E4C2478A4B1012812D839B10129FE
:100920000FD101231374022382F8383010BD05491A
:1009300001EB8010017C082903D11146184600F014
:100940006BF810BD78470020982700083E01002072
:1009500008B500210120FFF7D3FF002008BD00BF2C
:100960002DE9F04385B006460C46438B284A12F821
:1009700003800D6BD1F834904D444D620B6A73B90E
:10098000408B01F1200300222431224D285CFFF727
:100990000BFF0746E36AE2691344E36119E0072BA2
:1009A00002D90723CB6202E0072B00D8CB62708B01
:1009B00004F12003002204F12401164F385CFFF7F4
:1009C000F3FE07462563E36AE2691A44E2614B4499
:1009D0006363C7B9236B0193636B0393337F012B6D
:1009E00002D101A8FFF7B6FED6E9000101F0C4F973
:1009F00060600823237401A94046FFF7A9FF10B1E6
:100A0000012800D10127384605B0BDE8F08300BFBA
:100A1000240000202C00002038B54B8801339BB205
:100A20004B800A6B01244C6303F00F0320331370D7
:100A30000B880BB1013B0B808A69CB699A4205D8C0
:100A400001230B74022381F8383038BD0C4605466B
:100A50000B885BB94B7A4BB100F10801D1E9000179
:100A600001F08AF960600723237438BD6368D3B945
:100A7000D5E9040101F080F9606021462846FFF7BE
:100A80006FFF012809D002281FD1D5E9040101F028
:100A900073F960600623237438BD01232374022395
:100AA00084F8383038BD237A13F0800F02D1013337
:100AB000636008E00F33DBB2082B02D801236360C8
:100AC00001E0802363600523237438BD30B587B00F
:100AD000044601AB0020019002900393052A2AD01E
:100AE000062A30D0042A33D130238DF8043094F80C
:100AF0003030042B0ED1CA6B1D4BA3FB0203D01A5E
:100B000003EB50039B08DDB2C3EBC3039A4201D051
:100B10000135EDB223789D4200D82B464B720B80F5
:100B2000039A5370039DD4E9020101F025F9A870DE
:100B3000032305930CE031238DF804300323059340
:100B400004230B7404E032238DF80430032305934F
:100B500094F83630012B02D103A8FFF7FBFD638E1A
:100B600003A9044AD05CFFF7F3FE07B030BD00BF15
:100B70002549922428000020A74B1B78012B40F028
:100B80006B812DE9F04F83B000255FE105EB450255
:100B90005300A24A13445C8804EB8402D300A04FA4
:100BA0001F44A3019F4A03EB02089F4E1E449F4A25
:100BB00003EB0209337C053B032B00F28880DFE85E
:100BC00003F0022D576F984B03EB84135B6823B13E
:100BD000013B954A02EB84125360934B03EB841361
:100BE0005B68002B73D1A3018F4A02EB030A062234
:100BF0008AF810208B4A1344D3E90A23CDE9002355
:100C00009AF8080001F052F802460B46DDE90001AF
:100C100000F0FEFE01F0B0F8CAF804003146384694
:100C2000FFF79EFE002852D0022818D17E4B03EB1E
:100C300084135B6823B1013B7B4A02EB841253604F
:100C4000794B03EB84135B68002B40D1764B03EBAD
:100C5000841301221A74022283F8382037E0724B81
:100C600003EB841301221A74022283F838202EE049
:100C70006D4B03EB84135B6823B1013B6A4A02EBC3
:100C800084125360684B03EB84135B68FBB9664BBB
:100C900003EB841301221A74022283F8382016E031
:100CA000614B03EB84135B6823B1013B5E4A02EBAB
:100CB000841253605C4B03EB84135B683BB95A4B63
:100CC00003EB841301221A74022283F83820574B55
:100CD00003EB84131B7C032B02D0042B1AD0B3E04C
:100CE000524B03EB84135B6823B1013B4F4A02EB89
:100CF000841253604D4B03EB84135B68002B40F070
:100D0000A3804A4B03EB841401232374002384F84B
:100D1000383099E0454B03EB84135B6823B1013B0A
:100D2000424A02EB84125360404B03EB84135B682E
:100D300033BB3F4B1A7891B23A4B03EB84131B8AB7
:100D4000994212D801323A4B1A7005224946404660
:100D5000FFF7BCFEA401334B2344344A1444D3E9C7
:100D6000080101F009F860606EE0304B03EB841479
:100D700001232374002384F838302D4A137063E074
:100D800000273F60BF60A601264B33445B8E06F10F
:100D9000380ADFF898B0DA440AF1040A52463946B4
:100DA0002448C05CFFF702FD5E44336B3B60736B0D
:100DB000BB60F26B934247D81A4B03EB84135B8EF4
:100DC000524639461B48C05CFFF7F0FC10B10128C1
:100DD00032D039E0154B03EB84139A69DB699A42F0
:100DE00011D0042249464046FFF770FEA4010D4B86
:100DF00023440E4A1444D3E90A0100F0BDFF6060A9
:100E00000323237420E0094B03EB84140123237490
:100E1000002384F8383017E03E0100203000002025
:100E200098270008E8270008784700207846002027
:100E30003C01002020000020084B03EB8414012318
:100E40002374002384F838300135ADB2012D7FF6CC
:100E50009DAE03B0BDE8F08F704700BF784600201C
:100E6000B0F5803F0AD0B0F1807F0DD0012810D1BD
:100E7000084B1B6813F0020FFAD07047054B1B6834
:100E800013F4003FFAD07047024B1A68024B1A4223
:100E9000FAD070470010024000000102034A536874
:100EA00023F0030318435060704700BF0010024056
:100EB00008B541B101290BD1064A136803431360F9
:100EC000FFF7CEFF08BD034A136823EA0000106055
:100ED00008BD00BF00100240024A936918439061A8
:100EE000704700BF00100240024AD3691843D06126
:100EF000704700BF0010024030B589B00E4D03AC02
:100F000028686968AA68EB680FC42B8A238003AB42
:100F1000009312230293094B1B68012B06D16946EB
:100F20000120FFF781FC0022044B1A6041F2883057
:100F300000F014FDEFE700BF682800083C00002027
:100F400008B5FFF719FE4FF47A7000F007FDF8E7D7
:100F500000B583B001214FF48030FFF7A9FF0120D5
:100F6000FFF79CFF0820FFF7B7FF4FF00070FFF777
:100F7000BBFF0020FFF730FC002401940423009302
:100F800023464FF47A720849084800F08BFB01941D
:100F90000523009323464FF47A720549054800F073
:100FA00081FB00F0B1FBFEE77C280008410F000840
:100FB00084280008F90E0008124A12F0070F07D023
:100FC000D11D21F00701C1F5884313440A4601E011
:100FD0004FF488430C480260002141601344083BF1
:100FE00023F007030948036059601960991A51609A
:100FF0001360074B1960074B19604FF00042064B16
:101000001A607047580100204C0100204801002060
:101010005C4500204401002058450020124A00E0B1
:101020001A4613688342FBD310B451685418A04287
:1010300003D1406801445160104641684418A342FE
:101040000CD10A4C2468A34206D05B681944416065
:1010500013681B68036002E0046000E003609042D4
:1010600000D0106010BC70474C01002048010020E7
:1010700070B5054600F078FB294B1B680BB9FFF7EC
:101080009BFF284B1B681D423FD135B1083515F039
:10109000070F02D025F007050835002D37D0224B69
:1010A0001B689D4235D8214A146801E022461C463F
:1010B00063689D4202D92368002BF7D1184B1B6847
:1010C0009C4228D0166808362368136063685B1B4F
:1010D000102B04D9601943606560FFF79FFF6268B9
:1010E00011490B689B1A0B60114909688B4201D2A8
:1010F0000F490B600B4B1B681A436260002323608F
:101100000C4A13680133136006E0002604E0002651
:1011100002E0002600E0002600F0B0FB304670BD83
:101120004801002058450020440100204C010020C7
:101130005C4500204001002018B338B50346A0F1FB
:10114000080550F8042C0F4909680A4218D050F8D5
:10115000080CA8B91C4622EA010243F8042C00F04E
:1011600003FB54F8043C084A11680B4413602846FA
:10117000FFF754FF054A13680133136000F07EFB4C
:1011800038BD70475845002044010020540100201C
:1011900082B0002301934FF0BF0383F31188BFF3A4
:1011A0006F8FBFF34F8F019B002BFCD002B07047B5
:1011B00006480068006880F3088862B661B6BFF32D
:1011C0004F8FBFF36F8F00DF00BF000008ED00E01E
:1011D0004FF0807340F8043C21F0010140F8081CF6
:1011E000034B40F80C3C40F8202C4038704700BFBF
:1011F0009111000800000000000000000000000045
:10120000074B19680868B0E8F00F80F30988BFF34E
:101210006F8F4FF0000080F311884EF00D0E704775
:10122000F84500204FF0BF0383F31188BFF36F8FA1
:10123000BFF34F8F024A136801331360704700BF3A
:1012400040000020034A1368013B13600BB983F38D
:1012500011887047400000200000000000000000DE
:10126000EFF30980BFF36F8F0D4B1A6820E9F00F81
:1012700010602DE908404FF0BF0080F3118800F0A6
:1012800087FB4FF0000080F31188BDE80840196823
:101290000868B0E8F00F80F30988BFF36F8F7047DC
:1012A000F845002008B54FF0BF0383F31188BFF362
:1012B0006F8FBFF34F8F00F05FFA18B14FF080527D
:1012C000024B1A60002383F3118808BD04ED00E08F
:1012D000054B00221A6005490A6041F63F71044A35
:1012E000116007221A60704710E000E018E000E08B
:1012F00014E000E010B50B4B1A6842F47F021A604C
:101300001A6842F07F421A60FFF7E2FF0024064BA2
:101310001C60FFF74DFF00F03BFBFFF739FF204655
:1013200010BD00BF20ED00E04000002000F10803E8
:1013300043604FF0FF328260C360036100230360AB
:10134000704700BF00230361704700BF43684B60D4
:101350009A688A609A6851609960086103680133ED
:101360000360704730B40D68B5F1FF3F01D10269E9
:1013700007E000F1080200E01A4653681C68A54225
:10138000FAD253684B6099608A60516008610368C3
:101390000133036030BC7047036942688168916023
:1013A0008268416851605A68904201D182685A60EF
:1013B000002202611A68013A1A601868704700BF7B
:1013C000084B1B681B6823B94FF0FF32064B1A60AD
:1013D0007047044B1B68DB68DB685A68024B1A6075
:1013E000704700BF644500201846002010B5044631
:1013F000006BFFF7A1FE2046FFF79EFE10BD00BF69
:101400002DE9F04780469946089D099F0A9C236B69
:1014100002F18042013A03EB820626F0070641B949
:101420000FE0D056E11881F83400D15629B10133CC
:1014300001E00A4600230F2BF3D9002384F8433040
:1014400002E0002384F83430042D00D90425E5623D
:1014500065644FF0000AC4F848A0201DFFF772FF32
:1014600004F11800FFF76EFF2461C5F10505A561C1
:101470006462C4F84CA084F850A04A464146304605
:10148000FFF7A6FE206007B13C60BDE8F08700BF13
:1014900038B5002407E004EB840293000E4818449A
:1014A000FFF744FF0134042CF5D90C4D2846FFF713
:1014B0003DFF0B4C2046FFF739FF0A48FFF736FF88
:1014C0000948FFF733FF0948FFF730FF084B1D605D
:1014D000084B1C6038BD00BF884500202046002016
:1014E00034460020FC4500206C4500204846002082
:1014F000644500208045002010B50446FFF792FEA9
:10150000204A1368013313601F4B1B683BB91E4B05
:101510001C601368012B0DD1FFF7BAFF0AE01B4BCB
:101520001B683BB9184B1B68DA6AE36A9A4201D818
:10153000154B1C60164A136801331360E36A0122DD
:1015400002FA03F1134802680A43026003EB8303C3
:101550009A00211D10481044FFF7F8FEFFF772FEB5
:101560000A4B1B686BB1084B1B68DA6AE36A9A4244
:1015700007D24FF08052094B1A60BFF34F8FBFF371
:101580006F8F10BDF4450020F8450020684500200D
:101590001C4600205C4600208845002004ED00E049
:1015A00010B514E0FFF73EFE0B4BDB68DC68201D36
:1015B000FFF7F2FE094A1368013B1360084A1368FB
:1015C000013B1360FFF73EFE2046FFF70FFF044B81
:1015D0001B68002BE6D110BD6C450020F4450020AF
:1015E000F045002008B5FFF7DBFF064B1B68012B19
:1015F000F9D94FF08052044B1A60BFF34F8FBFF3FD
:101600006F8FF0E78845002004ED00E070B50446D8
:101610000E461D4B1D681D4B18680430FFF7BCFEBD
:1016200050B91A4B1B68DA6A012303FA02F218490F
:101630000B6823EA02030B60B4F1FF3F07D136B118
:10164000124B196804311348FFF780FE70BD2C441B
:101650000E4B1B685C60A54207D90F4B18680B4BFB
:1016600019680431FFF77EFE70BD0C4B1868074BFC
:1016700019680431FFF776FE094B1B689C4201D2C2
:10168000074B1C6070BD00BF14460020F8450020C9
:101690005C4600204846002080450020644500202C
:1016A000184600202DE9F04385B006460F46154642
:1016B00098469000FFF7DCFC60B181465420FFF7AC
:1016C000D7FC044610B1C0F8309004E04846FFF75C
:1016D00033FD00E000248CB10023039302940D9BA2
:1016E00001930C9B009343462A4639463046FFF748
:1016F00087FE2046FFF700FF012001E04FF0FF309A
:1017000005B0BDE8F08300BF00B583B0104B019376
:101710000023009380220F490F48FFF7C3FF0128E1
:1017200013D14FF0BF0383F31188BFF36F8FBFF363
:101730004F8F4FF0FF32094B1A600122084B1A609D
:101740000022084B1A60FFF7D5FD03B05DF804FBDB
:10175000104600208C280008E515000818460020D7
:101760006845002014460020024A136801331360C4
:10177000704700BFEC450020F8B5354B1B68002BC7
:101780005CD1344B1E6801361E605EB9324A116866
:10179000324B186810601960314A136801331360C6
:1017A000FFF70EFE2F4B1B689E4203D2002736E048
:1017B000012700E00027284B1B681B6823B94FF066
:1017C000FF32284B1A602AE0234B1B68DB68DC6879
:1017D00063689E4202D2234A136020E0251D2846FA
:1017E000FFF7DAFDA36A1BB104F11800FFF7D4FD7F
:1017F000E36A012202FA03F11B4802680A4302600D
:1018000003EB83039A00294618481044FFF79EFD16
:10181000E26A174B1B68DB6A9A42C9D2CBE7144BCA
:101820001B68DB6A03EB83039A00104B9B58012B68
:1018300000D901270F4B1B6833B906E00E4A136825
:1018400001331360002700E001273846F8BD00BFD0
:10185000EC4500201446002064450020804500200F
:1018600060450020184600205C4600208845002086
:10187000F8450020604600208445002038B5FFF779
:10188000D1FC2D4B1A68013A1A601B68002B4CD111
:101890002A4B1B6833BB00244AE0294BDB68DC6819
:1018A00004F11800FFF778FD251D2846FFF774FDA9
:1018B000E36A012202FA03F1224802680A43026045
:1018C00003EB83039A0029461F481044FFF73EFDAF
:1018D000E26A1E4B1B68DB6A9A4204D301221C4B4E
:1018E0001A6000E00024164B1B68002BD5D10CB108
:1018F000FFF766FD174B1C6854B1FFF73DFF10B1B1
:101900000122134B1A60013CF7D10022114B1A60DF
:101910000F4B1B685BB14FF080520F4B1A60BFF347
:101920004F8FBFF36F8F012402E0002400E00024FA
:10193000FFF788FC204638BDEC450020F445002028
:10194000FC4500205C46002088450020F84500202A
:10195000604600208445002004ED00E010B548B149
:101960000446FFF701FF00212046FFF74FFEFFF777
:1019700085FF00E0002038B94FF08052034B1A6019
:10198000BFF34F8FBFF36F8F10BD00BF04ED00E0BA
:10199000184B1B681BB10122174B1A60704730B4FB
:1019A0000022154B1A60154B1B68B3FA83F3DBB2A8
:1019B000C3F11F03124D9900CA18900028444268D1
:1019C0005468446019448A0008322A44944205D17C
:1019D000606803EB83018A002A44506003EB8303B1
:1019E0009A00074B1A445368DA68064B1A6030BCF9
:1019F000704700BFEC450020604600205C46002098
:101A000088450020F845002081F0004102E000BF39
:101A100083F0004330B54FEA41044FEA430594EAAE
:101A2000050F08BF90EA020F1FBF54EA000C55EAE9
:101A3000020C7FEA645C7FEA655C00F0E2804FEABA
:101A40005454D4EB5555B8BF6D420CDD2C4480EA9C
:101A5000020281EA030382EA000083EA010180EACC
:101A6000020281EA0303362D88BF30BD11F0004F1A
:101A70004FEA01314FF4801C4CEA113102D0404250
:101A800061EB410113F0004F4FEA03334CEA13338B
:101A900002D0524263EB430394EA050F00F0A780A3
:101AA000A4F10104D5F1200E0DDB02FA0EFC22FA9E
:101AB00005F2801841F1000103FA0EF2801843FA92
:101AC00005F359410EE0A5F120050EF1200E012A83
:101AD00003FA0EFC28BF4CF0020C43FA05F3C018C1
:101AE00051EBE37101F0004507D54FF0000EDCF13A
:101AF000000C7EEB00006EEB0101B1F5801F1BD3E3
:101B0000B1F5001F0CD349085FEA30004FEA3C0CE6
:101B100004F101044FEA445212F5800F80F09A80DC
:101B2000BCF1004F08BF5FEA500C50F1000041EBE0
:101B3000045141EA050130BD5FEA4C0C404141EBE4
:101B4000010111F4801FA4F10104E9D191F0000F0B
:101B500004BF01460020B1FA81F308BF2033A3F18E
:101B60000B03B3F120020CDA0C3208DD02F1140C85
:101B7000C2F10C0201FA0CF021FA02F10CE002F1C0
:101B80001402D8BFC2F1200C01FA02F120FA0CFCB9
:101B9000DCBF41EA0C019040E41AA2BF01EB045102
:101BA000294330BD6FEA04041F3C1CDA0C340EDC00
:101BB00004F11404C4F1200220FA04F001FA02F343
:101BC00040EA030021FA04F345EA030130BDC4F101
:101BD0000C04C4F1200220FA02F001FA04F340EAF6
:101BE0000300294630BD21FA04F0294630BD94F0A7
:101BF000000F83F4801306BF81F480110134013D8E
:101C00004EE77FEA645C18BF7FEA655C29D094EAFE
:101C1000050F08BF90EA020F05D054EA000C04BF7C
:101C20001946104630BD91EA030F1EBF0021002067
:101C300030BD5FEA545C05D14000494128BF41F006
:101C4000004130BD14F580043CBF01F5801130BD6A
:101C500001F0004545F0FE4141F470014FF00000F5
:101C600030BD7FEA645C1ABF194610467FEA655CA6
:101C70001CBF0B46024650EA013406BF52EA033548
:101C800091EA030F41F4002130BD00BF90F0000F36
:101C900004BF0021704730B54FF4806404F1320472
:101CA0004FF000054FF0000150E700BF90F0000F2B
:101CB00004BF0021704730B54FF4806404F1320452
:101CC00010F0004548BF40424FF000013EE700BF22
:101CD00042004FEAE2014FEA31014FEA02701FBFB2
:101CE00012F07F4393F07F4F81F06051704792F084
:101CF000000F14BF93F07F4F704730B54FF46074FE
:101D000001F0004521F0004120E700BF50EA010248
:101D100008BF704730B54FF000050AE050EA0102F5
:101D200008BF704730B511F0004502D5404261EB65
:101D300041014FF4806404F132045FEA915C3FF4A6
:101D4000DCAE4FF003025FEADC0C18BF03325FEA3F
:101D5000DC0C18BF033202EBDC02C2F1200300FAF4
:101D600003FC20FA02F001FA03FE40EA0E0021FA19
:101D700002F11444C1E600BF4A0011D212F500126C
:101D800011D20DD56FF47873B3EB62520ED44FEAD3
:101D9000C12343F0004343EA505323FA02F0704753
:101DA0004FF00000704750EA013002D14FF0FF3091
:101DB00070474FF000007047014B1868704700BF34
:101DC000A400002010B5431E0A44914204D011F82B
:101DD000014B03F8014FF8E710BD30B5141E05465E
:101DE0009BB0184604DA8B232B604FF0FF301DE0C8
:101DF0004FF40273ADF80C300CBF234604F1FF33EF
:101E0000029305934FF6FF7300910491ADF80E30E5
:101E100002461E9B6946284600F072F8431CBCBF70
:101E20008B232B6014B1009B00221A701BB030BDB5
:101E300007B5009313460A46014603480068FFF7BA
:101E4000CCFF03B05DF804FBA40000202DE9F047AF
:101E50008E6882469E420C46914698463ED88A89B4
:101E600012F4906F3AD02568096902236F1A6569E8
:101E700005EB450595FBF3F57B1C43449D4238BFBC
:101E80001D4653050FD5294600F040FB064698B184
:101E90003A462169FFF796FFA38923F4906343F044
:101EA0008003A38113E02A4600F08EFB064670B93A
:101EB0002169504600F0DEFA0C23CAF80030A389ED
:101EC0004FF0FF3043F04003A381BDE8F087266167
:101ED0003E44266046466561ED1BA560464528BF29
:101EE000464649463246206800F0A8FAA36800201A
:101EF0009B1BA36023681E442660BDE8F08700009A
:101F00002DE9F04F9DB003938B8980461C060D464A
:101F100016460DD50B695BB9402100F0F7FA286031
:101F2000286118B90C23C8F80030CDE040236B615C
:101F30000023099320238DF82930DFF89CB130234A
:101F40008DF82A3037463C4614F8013B1BB9B7EBF5
:101F5000060910D003E0252BF9D02746F3E74B46BE
:101F6000324629464046FFF771FF013000F0A78056
:101F7000099B4B4409933B78002B00F0A080002381
:101F80004FF0FF3204930793059206938DF8533078
:101F90001A930126052221784E4800F041FA671C69
:101FA000049B38B14B4A3C46801A06FA00F01843AD
:101FB0000490EFE7D90644BF20228DF853201A077A
:101FC00044BF2B228DF8532022782A2A03D0079A67
:101FD00000210A200BE0039A111D12680391002AC8
:101FE00010DA524243F00200079204900BE02746B9
:101FF0003B780134303B092B03D800FB023201212E
:10200000F5E701B107923B782E2B1ED17B782A2B66
:102010000AD1039B02371A1D1B680392002BB8BF1D
:102020004FF0FF33059310E0002319460593781C09
:102030000A2407463A780130303A092A03D804FBCB
:1020400001210123F5E703B10591032239782248E4
:1020500000F0E6F940B14023CBEB000003FA00F0BA
:10206000049B013718430490397806221B487E1CD4
:102070008DF8281000F0D4F988B1194B33B9039BBF
:10208000073323F007030833039314E003AB0093F3
:102090002A46144B04A94046AFF3008007E003AB87
:1020A00000932A460F4B04A9404600F093F8B0F184
:1020B000FF3F824603D0099B5344099342E7AB8913
:1020C0005B0601D4099801E04FF0FF301DB0BDE878
:1020D000F08F00BF942800089A2800089E28000866
:1020E000000000004D1E00082DE9F04791461F46F4
:1020F0000A698B6806469342B8BF1346C9F8003098
:1021000091F843200C46DDF8208012B10133C9F864
:1021100000302368990642BFD9F800300233C9F86D
:102120000030256815F0060510D104F1190A07E002
:102130000123524639463046C04701301AD0013596
:10214000E368D9F800209B1A9D42F1DB94F84330F4
:102150002268003318BF012392060FD5E118302002
:1021600081F843005A1C94F845102244023382F847
:10217000431003E04FF0FF30BDE8F08704F1430265
:1021800039463046C0470130F4D02268D9F80050B3
:10219000E36802F00602042A08BF5D1B2269A368F7
:1021A0000CBF25EAE57500259342C4BF9B1AED18C4
:1021B0004FF000091A344D4509D001232246394613
:1021C0003046C0470130D5D009F10109F3E70020BE
:1021D000BDE8F0872DE9F04317460A7E85B06E2AE8
:1021E000984606460C460C9B01F1430E00F0AE806B
:1021F00011D8632A22D009D8002A00F0BB80582ABF
:1022000040F0CA8081F84520834955E0642A1ED0F9
:10221000692A1CD0C0E0732A00F0B08009D86F2A68
:102220002ED0702A40F0B8800A6842F020020A607E
:102230003EE0752A24D0782A3AD0ADE01A6801F140
:102240004205111D1960136884F84230A8E0216826
:102250001A6811F0800F02D0111D196008E011F00A
:10226000400F02F10401196002D0B2F9003000E021
:102270001368002B3CDA2D225B4284F8432037E0C0
:1022800021681A6811F0800F02D0111D196007E053
:1022900011F0400F02F10401196001D0138800E031
:1022A0001368227E5C496F2A14BF0A2208221BE0B1
:1022B00078225A4984F845202268186812F0800F65
:1022C00000F104051D6003D1550601D5038800E027
:1022D0000368D00744BF42F0200222601BB9226885
:1022E00022F0200222601022002084F8430001E046
:1022F00049490A226568002DA56008DB206820F0A6
:10230000040020602BB9002D7DD175460CE0002B18
:1023100079D07546B3FBF2F002FB1033CB5C05F8C5
:10232000013D03460028F5D1082A0BD12368DA07BE
:1023300008D5236962689A42DEBF302305F8013C64
:1023400005F1FF35C5EB0E0323612EE008681A681E
:1023500010F0800F496903D0101D1860136808E061
:1023600010F0400F02F104001860136801D01980CA
:1023700000E0196000232361754616E01A68111DFC
:102380001960156800216268284600F049F808B114
:10239000401B6060636804E004F1420584F8422059
:1023A00001232361002384F84330CDF800803B46AD
:1023B00003AA21463046FFF797FE013002D14FF0C5
:1023C000FF3026E023692A4639463046C0470130AF
:1023D000F5D023689B0710D5002504F1190907E003
:1023E00001234A4639463046C0470130E7D001351F
:1023F000E368039A9B1A9D42F2DBE068039B9842D4
:10240000B8BF184605E00B7804F1420584F8423065
:102410008AE705B0BDE8F083A5280008B6280008C3
:1024200010B5C9B202449042034605D01C78013071
:102430008C42F8D1184610BD002010BD884210B55E
:1024400001EB020301D8421E0BE09842FBD2811837
:10245000D21AD34204D013F8014D01F8014DF8E728
:1024600010BD994204D011F8014B02F8014FF8E772
:1024700010BD000038B50546002944D051F8043C91
:102480000C1F002BB8BFE41800F0D4F81E4A1368E4
:10249000114613B96360146030E0A3420DD922687D
:1024A000A018834201BF18685B681218226063603D
:1024B0000C6023E0A24203D813465A68002AF9D1DF
:1024C00018681918A1420BD121680144581882429A
:1024D000196013D110685268014419605A600DE008
:1024E00002D90C232B6009E021686018824201BFE9
:1024F000106852680918216062605C602846BDE877
:10250000384000F098B838BD6846002070B5CD1C42
:1025100025F0030508350C2D38BF0C25002D064687
:1025200001DBA94202D90C23336046E000F082F8B7
:10253000234B1C681A462146A1B10B685B1B0ED4C5
:102540000B2B03D90B60CC18CD501EE08C420BBF77
:1025500063684B681360636018BF0C4615E00C4657
:102560004968E9E7174C23681BB9304600F052F878
:1025700020602946304600F04DF8431C18D0C41C9A
:1025800024F00304A0420DD12560304600F053F83A
:1025900004F10B00231D20F00700C31A0ED05A428D
:1025A000E25070BD211A304600F034F80130EBD112
:1025B0000C233360304600F03EF8002070BD00BFB1
:1025C0006846002064460020F8B5074615460E46CA
:1025D00021B91146BDE8F840FFF798BF1AB9FFF7D7
:1025E00049FF2846F8BD00F027F885420ED9294654
:1025F0003846FFF78BFF044650B131462A46FFF7B5
:10260000E1FB31463846FFF735FF01E03046F8BDC3
:102610002046F8BD38B5064C002305460846236021
:10262000FDF7B0FE431C02D1236803B12B6038BD17
:102630006C4600207047704751F8040C0028BEBF5C
:10264000091851F8043CC01804387047537461638A
:102650006B206672616D653A0A00000020523020DE
:102660003D2020253038580A00000000205231203B
:102670003D2020253038580A00000000205232202A
:102680003D2020253038580A000000002052332019
:102690003D2020253038580A0000000020523132F9
:1026A000203D20253038580A00000000204C5220E0
:1026B0003D2020253038580A0000000020504320DB
:1026C0003D2020253038580A000000002050535289
:1026D000203D20253038580A000000004653522F74
:1026E0004641523A0A0000002043465352203D2002
:1026F00020253038580A00002048465352203D20FB
:1027000020253038580A00002044465352203D20EE
:1027100020253038580A00002041465352203D20E1
:1027200020253038580A0000204D4D464152203DAA
:1027300020253038580A00002042464152203D20D2
:1027400020253038580A00004D6973630A000000E4
:10275000204C522F4558435F52455455524E3D2010
:10276000253038580A0000005B4861726446617584
:102770006C745D0A000000005B4275734661756C05
:10278000745D0A005B55736167654661756C745DC5
:102790000A000000000000000000000000002040CF
:1027A0000000000000002240000000000000244063
:1027B0000104000000010000000000000000000013
:1027C0000000000000002040000000000000224047
:1027D000000000000000244001040100000100008E
:1027E00000000000000000000A00000000000000DF
:1027F000000000000000F03F0500000000000000A5
:1028000000000000000024400000000000003440F0
:102810000000000000003E40040000000000000135
:102820000000000000000000140000000000000094
:10283000000000000000F03F050000000000000064
:1028400000000000000008400000000000001040F0
:102850000000000000001840040001000000010119
:1028600000000000000000004D6F68616D65644667
:10287000617261676973676F6F6400005461736BA5
:102880005F3100005461736B5F32000049444C4576
:1028900000000000232D302B2000686C4C00656682
:1028A00067454647003031323334353637383941A1
:1028B00042434445460030313233343536373839B7
:0728C00061626364656600BC
:1028C80078563412B8000020000000000000000014
:1028D80000000000010203040607080900A24A04D8
:1028E8000A0CFFFF0016FFFF0403FFFF140EFFFF93
:1028F80000000000010000000100010001000000CC
:10290800AAAAAAAA00000000000000000000000017
:1029180000000000000000000000000000000000AF
:10292800000000000000000000000000000000009F
:10293800000000000000000000000000000000008F
:10294800000000000000000000000000000000007F
:10295800000000000000000000000000000000006F
:0C2968000000000044000020325476986B
:040000050800010DE1
:00000001FF
