:020000040800F2
:100000000050002021020008270200082B020008EF
:100010009D020008A1020008E9020008000000009B
:10002000000000000000000000000000311A00087D
:100030003503000800000000911A0008D51A0008D6
:100040004D0300084D0300084D0300084D03000850
:100050004D0300084D0300084D0300084D03000840
:100060004D0300084D0300084D0300084D03000830
:100070004D0300084D0300084D0300084D03000820
:100080004D0300084D0300084D0300084D03000810
:100090004D0300084D0300084D0300084D03000800
:1000A0004D0300084D0300084D0300084D030008F0
:1000B0004D0300084D0300084D0300084D030008E0
:1000C0004D0300084D0300084D0300084D030008D0
:1000D0004D0300084D0300084D0300084D030008C0
:1000E0004D0300084D0300084D0300080000000008
:1000F0000000000000000000000000000000000000
:1001000000000000000000005FF808F100B583B0B7
:1001100000F0AEF9304B314A1360314A1360314B75
:10012000314A32498B4204D21168196004330432D7
:10013000F7E72A4B1A682E4B9A4200D0FEE7284B6D
:100140001A682C4B9A42F9D1234B2B4A13602B4A45
:1001500013602B4B02E000221A600433294A9342B9
:10016000F9D3254B1B6813B9244B1B6803B1FEE779
:1001700000F08AF9694601A800F026F9224C234BC9
:10018000E41AA4100025AC4214DC214C214BE41AE3
:10019000A4100025AC4213DC0099019801F0EEFA9E
:1001A00005461D4C1D4BE41AA410002C0EDC2846FD
:1001B00000F0E6F8154B53F8253098470135E2E793
:1001C000144B53F8253098470135E3E7013C134BB6
:1001D00053F824309847E8E7BABADECA0000002096
:1001E0009800002000000020E43100089C0000205E
:1001F00078563412325476989C0000203447002000
:100200009C0000203847002078030008780300088D
:1002100078030008780300087803000878030008D2
:1002200008B5FFF773FF00BEFEE71EF0040F0CBF1A
:10023000EFF30880EFF309807146414A10472DE93A
:10024000F04182B004468846124B5E6B9F6B9D6AFC
:100250001B6B13F0020F03D00E4BDB6A002B0CDB81
:100260000D4800F0B9F8CDF800803B4632462946EB
:10027000204600F00DF900BEFEE74BF6AB6100F042
:1002800081F90028ECD0034B4FF00042DA6202B053
:10029000BDE8F08100ED00E0782F000800BEFEE729
:1002A0001EF0040F0CBFEFF30880EFF309807146D6
:1002B000244A10472DE9F04182B004468846084B95
:1002C0005E6B9F6B9D6A074800F086F8CDF8008052
:1002D0003B4632462946204600F0DAF800BEFEE7EB
:1002E00000ED00E0882F00081EF0040F0CBFEFF3B4
:1002F0000880EFF309807146134A10472DE9F04159
:1003000082B004468846084B5E6B9F6B9D6A074827
:1003100000F062F8CDF800803B4632462946204680
:1003200000F0B6F800BEFEE700ED00E0942F0008F4
:1003300000BEFEE700BEFEE700BEFEE7704700001D
:100340003F020008B5020008FD02000800BEFEE7FB
:10035000E4310008000000209C000020E431000887
:1003600000000000000000009C0000203847002032
:08037000000000000000000085
:10038000FEE7000008B503460C4A12685AB10B4A52
:100390001068033323F003030344094A934206D849
:1003A000064A136008BD054A06491160EFE702F0EE
:1003B00023F90C2303604FF0FF30F3E7A000002087
:1003C000004C00203847002001230360014B0B60E4
:1003D000704700BF040000200FB400B583B004AB29
:1003E00053F8042B01938021064802F043F90028BA
:1003F00003DD0146034800F037F803B05DF804EB75
:1004000004B07047A80000202DE9F04385B00446F1
:100410000F4643560BB10E461EE0042528462146E2
:10042000ABBE0446384605B0BDE8F08314F9011BA5
:1004300004AA1A4402F8101C0133AB42F6D304AAF2
:100440001344002203F8102C4FF00408E9464046FC
:100450004946ABBE8046761B002EE3D03546102EB3
:1004600028BF10250023E8E708B5FFF7CDFF08BD3A
:1004700008B500F0FDF8024A024B9A6008BD00BFC3
:100480000000000800ED00E008B500F019F908BD13
:10049000F8B504460D4617461E462748FFF79CFF51
:1004A00021682648FFF798FF61682548FFF794FF09
:1004B000A1682448FFF790FFE1682348FFF78CFF0D
:1004C00021692248FFF788FF61692148FFF784FF0F
:1004D000A1692048FFF780FFE1691F48FFF77CFF13
:1004E0001E48FFF779FF29461D48FFF775FF1D4C91
:1004F000E16A1D48FFF770FF216B1C48FFF76CFF96
:10050000E16B1B48FFF768FF15F0800F0AD115F467
:10051000004F0CD11748FFF75FFF06991648FFF709
:100520005BFFF8BD39461548FFF756FFEFE7314648
:100530001348FFF751FFEDE75C2E00086C2E000812
:100540007C2E00088C2E00089C2E0008AC2E000883
:10055000BC2E0008CC2E0008DC2E0008EC2E000873
:10056000F82E000800ED00E0082F0008182F000802
:10057000282F0008582F0008602F0008382F000887
:10058000482F000883691A888A4201D000207047EA
:100590000268033A012A03D80233836101207047BD
:1005A0000020704782B00023019300932C4A136807
:1005B00043F4803313602A4B1B6803F40033009329
:1005C000019B01330193009B1BB9019BB3F5A06F05
:1005D000F1D1234B1B6813F4003F06D00123009395
:1005E000009B012B04D002B0704700230093F7E773
:1005F0001C4B1A6842F010021A601A6822F00302BB
:100600001A601A6842F002021A60A3F580535A6811
:100610005A605A685A605A6842F480625A605A684E
:1006200022F47C125A605A6842F4E8125A601A683E
:1006300042F080721A600A4B1B6813F0007FFAD0F8
:10064000074B5A6822F003025A605A6842F00202CD
:100650005A60034B5B6803F00C03082BF9D1C2E727
:10066000001002400020024008B5FFF79BFF08BDC4
:1006700008B5104B1A6842F001021A6059680E4A18
:100680000A405A601A6822F0847222F480321A609A
:100690001A6822F480221A605A6822F4FE025A6014
:1006A0004FF41F029A60FFF7DFFF044B4FF0006228
:1006B0009A6008BD001002400000FFF800ED00E065
:1006C0001F4B5B6803F00C03042B15D0082B17D0CD
:1006D0001BB11C4B1C4A1A6002E01A4B1A4A1A60E2
:1006E000174B5B68C3F30313184AD35CDAB215499E
:1006F0000B68D3400B607047124B134A1A60EFE748
:100700000F4A53685268C3F38343023312F4803FA5
:100710000AD00B4A526812F4003F0BD00C4A02FB7D
:1007200003F3084A1360DBE7094A02FB03F3054AB7
:100730001360D5E7044A02FB03F3024A1360CFE7D4
:10074000001002401C00002000127A000C00002063
:1007500000093D0010B50C460021012000F0AAFE62
:100760002146012000F02EFF002010BD037A04E096
:1007700002680021D1540133DBB2072BF8D90823DA
:100780008360704701238372002380F82C30C3609C
:100790000363436103614380038083614362704765
:1007A00001238372022380F82C30002303614380ED
:1007B000C36003634361038083614362704710B485
:1007C00090F83030042B02D013B9062400E007243F
:1007D0000B7B087C1B1ADBB2086B984217D3B3FB68
:1007E000F4F004FB103010F0FF0F0CD0B3FBF4F367
:1007F000581CC0B2107004FB00F0C0B2096B8842F4
:100800000CD913700AE0B3FBF4F3137006E0B0FBED
:10081000F4F0C0B2107008B90123137010BC704717
:100820008B7A072B00D0704770B5437E63B10025EB
:100830000C4611686E1C4B5D03F00F03012B11D0A9
:1008400023B1022B18D070BD0125F1E78B5D6372D7
:10085000136802359B5D238013685B5D237206235A
:10086000A372F0E700F10801D1E9000101F0A4FE54
:1008700060600723A372E6E70121A172022384F8D6
:100880002C30028C024B33F8120000F0F3FEDAE752
:10089000603100082DE9F04385B005460C46C28B57
:1008A000434B33F812705FFA87F8428B414B33F8B1
:1008B00012004B694BB300238B626B7E0BB9012393
:1008C0008B62638801339BB2638003F00F03626A1B
:1008D000A16A4E1CA6622033535423880BB1013BFE
:1008E00023806369072B1DD90723236204F11403B6
:1008F000002204F11801C0B200F08CFE0646226A04
:10090000236913442361002316E001F1140300223C
:100910001831C0B200F07EFE0646226A23691344F5
:100920002361F0E72362E1E7A069616AA26A1A44E1
:10093000C05C88540133DBB2226A9342F4D3A36AC9
:100940001A44A2623EBB636A019303924FF000090E
:1009500009E0019B13F809101748FFF73DFD09F165
:1009600001095FFA89F9039B9945F2D32B7F012B8B
:1009700015D0D5E9000101F01FFE60600823A372C5
:1009800041460E48FFF728FD01A9F8B2FFF7E2FE45
:1009900048B1012809D0304605B0BDE8F08301A870
:1009A000FFF7E4FEE5E70026F5E70126F3E700BFE1
:1009B0005431000860310008403000085030000811
:1009C000F8B505460C468B7A053B032B24D8DFE8A7
:1009D00003F00218435663680BB1013B6360636820
:1009E000D3B90623A372D2E90A67207A01F07AFD0F
:1009F00002460B463046394601F026FC01F0DCFD8C
:100A000060602848FFF7E8FC21462846FFF742FFD0
:100A1000012802D002280CD0F8BD0121A1720223C6
:100A200084F82C306A8B204B33F8120000F022FE41
:100A3000F2E763680BB1013B63606368002BEBD1A5
:100A40000121A172022384F82C306A8B164B33F8F3
:100A5000120000F00FFEDFE763680BB1013B63603B
:100A60006368002BD8D10121A172022384F82C30B5
:100A70006A8B0D4B33F8120000F0FCFDCCE7636885
:100A80000BB1013B63606368002BC5D10121A172EA
:100A9000022384F82C306A8B034B33F8120000F0E9
:100AA000E9FDB9E7103000086031000838B50546A7
:100AB0000C46CA680B699A420ED90B880BB94B7A5F
:100AC000D3B963681BB3237A13F0800F50D101337D
:100AD00063600523A37238BD2A48FFF77DFC6A8B4B
:100AE0000021294B33F8120000F0C4FD0123A3724A
:100AF000022384F82C30EEE72448FFF76DFCD5E99B
:100B0000020101F059FD60600723A372E3E720486A
:100B1000FFF762FCD5E9040101F04EFD60601D485D
:100B2000FFF75AFC21462846FFF7B4FE012812D0F1
:100B300048B10228CFD1D5E9040101F03DFD606044
:100B40000623A372C7E76A8B00210F4B33F812000C
:100B500000F090FDBFE76A8B01210B4B33F81200C8
:100B600000F088FD0123A372022384F82C30B2E741
:100B70000F33DBB2082B02D801236360A9E780237F
:100B80006360A6E7BC2F000860310008C42F00088E
:100B9000D02F0008D82F000870B586B004460D4647
:100BA00001AB0021019102910393018F364B33F881
:100BB0001160052A45D0062A4BD0042A23D094F888
:100BC0003630012B4BD0D4E9060101F0F5FC68600A
:100BD0000923AB72628E2D49342000FB0212039B65
:100BE0005362638E00FB0313059A9A6231462848CC
:100BF000FFF7F2FB03A93046FFF7ACFD98B30128DD
:100C000039D006B070BD30238DF804300DF10302E9
:100C10002946FFF7D4FD23789DF80320934201D2A3
:100C20008DF803309DF803306B722B80039A53705C
:100C3000D4E9020101F0C0FC039B987003230593E3
:100C4000BDE731238DF80430032305930423AB72F1
:100C5000B5E732238DF8043003230593AFE703A8EB
:100C6000FFF784FDAFE7628E00210A4B33F81200D4
:100C700000F000FDC5E7628E0121064B33F812003B
:100C800000F0F8FCBDE700BF5431000864460020C6
:100C90002030000860310008F8B505460C468B7A14
:100CA000042B28D0092B14D0032B00D0F8BD4B689F
:100CB0000BB1013B4B606368002BF7D10121A1729E
:100CC00084F82C306A8E454B33F8120000F0DDFCBE
:100CD000ECE74B680BB1013B4B606368002BE5D13F
:100CE0000121A17284F82C306A8E3C4B33F812003B
:100CF00000F0CBFCDAE74B680BB1013B4B6063685B
:100D000013BB374B1B7899B22A8A91420DD8013315
:100D1000334A1370052221462846FFF73DFFD5E9E7
:100D2000080101F049FC6060C0E76A8E01212B4B8D
:100D300033F8120000F0A9FC0123A372002384F809
:100D40002C30274A1370B1E700263660B660688EF3
:100D500004F130073A463146204B33F8100000F0DA
:100D60008EFC636A3360A36AB360226B93429DD8A2
:100D7000688E3A463146194B33F8100000F07FFC7C
:100D800068B1012892D10121A172002384F82C308E
:100D90006A8E124B33F8120000F077FC86E7E268A7
:100DA00023699A420CD0042221462846FFF7F4FE1C
:100DB000D5E90A0101F000FC60600323A37275E726
:100DC0006A8E0021054B33F8120000F05EFC01230F
:100DD000A372002384F82C3068E700BF5C31000860
:100DE00028010020F0B585B0448E4E4B33F81460D6
:100DF0008B7A032B01D005B0F0BD90F83030002B7A
:100E000030D000230C46054610685F1CC15C01F021
:100E10000F01638803F00F03994225D138440190F4
:100E20009368013B039323880BB1013B2380238804
:100E30000BB9637A0BBB04F1300201A9304600F014
:100E40001EFC012863D00028D5D16388013363805C
:100E50002369039A13442361D5E90A0101F0ACFB2D
:100E60006060C8E70123CDE70121A172002384F867
:100E70002C30304600F009FCBDE7D5E9080101F04F
:100E80009BFB606004F1300201A9304600F0F7FBE3
:100E90006388013363802269039B13442361E26802
:100EA00093420ED230BB236B062B14D8D5E9080130
:100EB00001F082FB60600423A372012384F82C30CC
:100EC00099E70146304600F0E0FB0123A3720023BE
:100ED00084F82C308FE70021304600F0D6FB032346
:100EE000A372012384F82C30042221462846FFF700
:100EF00053FE80E72388013323800123A37200235C
:100F000084F82C300146304600F0BFFB73E7014601
:100F1000304600F0BAFB0123A372002384F82C3082
:100F200069E700BF5C3100082DE9F04184B0064656
:100F30000C46904691F82C30012B07D096F83030B3
:100F4000042B0ED07BB9012702250CE0828E0121F3
:100F50002E4B33F8120000F098FB2046FFF712FCEE
:100F6000ECE700270125D8F80020154404A941F832
:100F70000C5DD25D02F00702E260012384F82C30A0
:100F80000223A372778E04F130052B461F4830F8F8
:100F9000170000F070FB012831D020B103282ED0BB
:100FA00004B0BDE8F081226BE3689A420CD2B28EA5
:100FB0000121164B33F8120000F067FB0123A372E6
:100FC000002384F82C30EBE7708E2A4601A90F4BE2
:100FD00033F8100000F053FB48B10128EED1B28E77
:100FE00001210A4B33F8120000F04FFBE6E7B28E06
:100FF0000021064B33F8120000F047FBDEE7012327
:10100000A372002384F82C30CAE700BF5C310008CB
:101010002DE9F04184B006460C46154691F82C3077
:10102000012B08D096F83030042B0FD08BB9012754
:101030004FF003080DE0828E01214A4B33F8120075
:1010400000F023FB2046FFF79DFBEBE700274FF066
:1010500002082B6803EB08020192AA68A2EB0802BF
:101060000392DD5D2D0205F470653B445B781D4401
:10107000E560012384F82C300223A372D6E908012D
:1010800001F09AFA6060B6F832C004F130073B46CE
:101090002A4601A9334830F81C0000F0ECFA012878
:1010A0004ED020B1032851D004B0BDE8F081226BAE
:1010B000039B9A4212D3708E3A4601A9294B33F80A
:1010C000100000F0DCFAB0B10128EDD1B28E0121A0
:1010D000244B33F8120000F0D8FAE5E7B28E012174
:1010E000204B33F8120000F0D0FA0123A372002342
:1010F00084F82C30D8E72369039A13442361236BC7
:10110000062B0AD8D6E9080101F056FA60600423DC
:10111000A372012384F82C30C6E7B28E0021114B54
:1011200033F8120000F0B1FA0323A372012384F80C
:101130002C306380042221463046FFF72DFDB3E7B3
:101140000123A372002384F82C30ADE70622214648
:101150003046FFF721FD0123A372002384F82C30D1
:10116000A2E700BF5C31000870B505460E46514B42
:1011700003EB801393F83030042B02D013B9012213
:1011800000E0002233689C5C04F0300421464A48A9
:10119000FFF722F9102C3FD01BD9202C47D0302C40
:1011A00044D1B368072B07D805EB8503DA00434B1E
:1011B00013441B7F012B75D005EB8502D30032460B
:1011C00034203F4900FB05113C481844FFF728FB39
:1011D0002CE05CBBB368072B06D8364B03EB8513BA
:1011E00093F83630012B0AD032463421354B01FBBF
:1011F0000531304800EB8510FFF796FE16E07023AE
:10120000422200210E2000F0FDF901212E4B33F87F
:10121000150000F03AFA09E032463421294B01FB6F
:101220000531244800EB8510FFF7F2FE70BD27481A
:10123000FFF7D2F8342303FB05F3224AD35A33BB1A
:10124000342303FB05235B7A0BB3B368072B06D863
:10125000184B03EB851393F83630012B0AD0324636
:101260003421184B01FB0531124800EB8510FFF7C4
:10127000B9FDDBE77023422200210E2000F0C2F905
:101280000121114B33F8150000F0FFF9CEE732468B
:1012900034210C4B01FB0531064800EB8510FFF7AC
:1012A000A1FDC3E701210A4B33F8150000F0E2F974
:1012B000BCE700BF68300008EC2F0008E8300008E9
:1012C000CC460020644600205C3100080430000851
:1012D00060310008F8B5002416E00E4E65002A19AA
:1012E00053003344588834270B4B07FB0030FFF77B
:1012F00057FA25446B001E447088084B07FB0030EA
:10130000FFF740FA0134A4B2012CE6D9044B0122C4
:101310001A70F8BD20000020CC4600206446002052
:101320002901002038B53D4A342303FB00233C4A01
:101330005A623C4B1B785BB191B1012817D8374AF0
:10134000342303FB00239B7A012B18D0012006E0F5
:101350002023492200210E2000F054F9012038BD3D
:10136000032349220E2000F04DF90120F7E7302336
:10137000492200210E2000F045F90120EFE78A689C
:101380002649342303FB0013DA60032283F82C2060
:1013900000229A6200EB8003DA00234B13445A7E4A
:1013A000042A02D012B9062400E007241B49342382
:1013B00003FB0013DB68A34204D9042A0FD07AB9D7
:1013C00005240DE0342202FB0010426A01218162F3
:1013D0001370C3680362062383720020BFE70624EC
:1013E000C3F303230D4A342101FB0020426A01218B
:1013F000816243F010031370C168426A836A5D1C06
:101400008562D154046206238372436A5A7819783C
:101410000648FEF7E1FF0020A1E700BFCC46002010
:101420005C46002029010020E8300008A42F0008B5
:101430002DE9F041194B1B78012B01D1002428E044
:101440002023062200210E2000F0DCF823E0144EB9
:1014500065002A19530033445B88124F4FF034085B
:1014600003EB8302D00007EB83120F4908FB031143
:101470000E4B1844FFF7A4FA25446B001E447088F5
:101480000B4908FB001107EB8010FFF705FC013446
:10149000A4B2012CDBD9BDE8F08100BF29010020F6
:1014A0002000002068300008CC460020E83000080A
:1014B0006446002070B53F4B1B78D3B104460D46FF
:1014C00003281DD8831E9BB2012B20D9012816D8D2
:1014D000B1B3012908D1384A342303FB0023012288
:1014E0009A72022283F82C202946204600F0C2F886
:1014F00005E02023402200210E2000F083F870BD7B
:101500003023402200210E2000F07CF8F7E7841EF3
:101510002A4A342303FB04239B7A092B09D113465F
:10152000342202FB04340323A372002384F82C30FA
:10153000E5E73023402200210E2000F063F8DEE7CB
:101540001D4A342303FB00239B7A082BCCD1342380
:1015500003FB00235B6A1B7803F03003102B0CD0D5
:10156000202B1BD0002BBFD1342303FB00230122EF
:101570009A72022283F82C20B6E700EB8003DA008F
:101580000F4B13440C4A342606FB0026D3E9020114
:1015900001F012F870600723B372A5E700EB800238
:1015A000D3003421044A01FB002105481844FFF709
:1015B0007DFAA4E729010020CC46002064460020E3
:1015C000E830000808B559B10D4B1B7873B10128FC
:1015D00013D94023422200210E2000F013F808BD49
:1015E000032342220E2000F00DF8F8E720234222C8
:1015F00000210E2000F006F8F1E7FFF7B5FDEEE759
:101600002901002008B501460148FEF7E5FEFEE786
:1016100038310008F0B486B00E461F4601AC134DB9
:101620000FCD0FC4124B1B782BB901AA3260B268E0
:10163000C2F111023A60012B08D0022B0ED0013307
:101640000B4A1370002006B0F0BC70470DF10A027F
:101650003260B268C2F10B023A60EEE70DF111029E
:101660003260B268C2F104023A60E8E7643100080F
:101670002A010020704728221A6000207047136852
:1016800089685B1A1360002070477047B0F5803F8F
:101690000BD0B0F1807F0ED0012800D07047094BED
:1016A0001B6813F0020FFAD07047064B1B6813F447
:1016B000003FFAD07047034B1A68034B1A42FAD026
:1016C000ECE700BF0010024000000102034A53682B
:1016D00023F0030318435060704700BF001002401E
:1016E00008B541B1012905D1064A136803431360C7
:1016F000FFF7CCFF08BD034A136823EA000010601F
:10170000F8E700BF00100240024A93691843906155
:10171000704700BF00100240024AD3691843D061ED
:10172000704700BF0010024000B589B003AC0D4DFA
:101730000FCD0FC42B68237003AB009311230293CA
:1017400003E041F2883000F023FD074B1B68012BBA
:10175000F7D169460120FFF7E5FD034B00221A602F
:10176000EFE700BF783100082C00002008B5FFF734
:101770005FFE4FF47A7000F00BFDF8E700B583B020
:1017800001214FF48030FFF7ABFF0120FFF79EFFF0
:101790000820FFF7B9FF4FF00070FFF7BDFF0020F2
:1017A000FFF798FD002401940223009323464FF491
:1017B0007A720849084800F08DFB019401230093D8
:1017C00023464FF47A720549054800F083FB00F088
:1017D000B3FBFEE78C3100086D1700089831000854
:1017E00029170008124A12F0070F1ED0D11D21F050
:1017F0000701C1F5884313440A460E4802600021E0
:1018000041601344083B23F007030B480360596011
:101810001960991A51601360084B1960084B1960E0
:10182000084B4FF000421A6070474FF48843E4E7DA
:1018300030010020444500202C01002038450020C4
:10184000344500203045002010B4134A00E01A4609
:1018500013688342FBD351685418844209D041680D
:101860004418A3420AD00360904200D0106010BC1C
:1018700070474068014451601046F0E7074C246807
:10188000A34206D05B681944416013681B6803607B
:10189000EAE70460E8E700BF444500202C0100208F
:1018A00070B5054600F07AFB2A4B1B68A3B12A4BA2
:1018B0001B681D4246D135B1083515F0070F02D01F
:1018C00025F007050835002D3ED0244B1B68AB42A0
:1018D0003CD3234A146804E0FFF784FFE7E722467D
:1018E0001C466368AB4202D22368002BF7D1194B28
:1018F0001B68A3422CD016680836236813606368FF
:101900005B1B102B18D8626814490B689B1A0B607C
:10191000144909688B4201D212490B600E4B1B68B7
:1019200013436360002323600F4A1368013313607D
:1019300000F0BCFB304670BD601943606560FFF786
:1019400083FFE0E70026F3E70026F1E70026EFE754
:101950000026EDE72C010020304500203445002012
:1019600044450020384500203C45002018B338B5D8
:101970000446A0F1080550F8042C0F4909680A42F2
:1019800002D050F8080C00B138BD22EA010244F838
:10199000042C00F003FB54F8041C084A13680B44A1
:1019A00013602846FFF750FF054A136801331360A0
:1019B00000F07CFBE8E7704730450020344500200C
:1019C0004045002082B0002301934FF0BF0383F312
:1019D0001188BFF36F8FBFF34F8F019B002BFCD09B
:1019E00002B0704706480068006880F3088862B655
:1019F00061B6BFF34F8FBFF36F8F00DF00BF0000F2
:101A000008ED00E04FF0807340F8043C21F0010144
:101A100040F8081C034B40F80C3C40F8202C4038A0
:101A2000704700BFC519000800000000000000005A
:101A3000074B19680868B0E8F00F80F30988BFF316
:101A40006F8F4FF0000080F311884EF00D0E70473D
:101A50004C4500204FF0BF0383F31188BFF36F8F15
:101A6000BFF34F8F024A136801331360704700BF02
:101A700030000020034A1368013B13600BB983F365
:101A800011887047300000200000000000000000B6
:101A9000EFF30980BFF36F8F0D4B1A6820E9F00F49
:101AA00010602DE908404FF0BF0080F3118800F06E
:101AB00089FB4FF0000080F31188BDE808401968E9
:101AC0000868B0E8F00F80F30988BFF36F8F7047A4
:101AD0004C45002008B54FF0BF0383F31188BFF3D6
:101AE0006F8FBFF34F8F00F061FA18B1034B4FF0C7
:101AF00080521A60002383F3118808BD04ED00E0D2
:101B0000054B00221A6005490A60054A41F63F71FB
:101B1000116007221A60704710E000E018E000E052
:101B200014E000E010B50B4B1A6842F47F021A6013
:101B30001A6842F07F421A60FFF7E2FF0024064B6A
:101B40001C60FFF74FFF00F03DFBFFF73BFF204617
:101B500010BD00BF20ED00E03000002000F10803C0
:101B600043604FF0FF328260C36003610023036073
:101B7000704700230361704743684B609A688A602E
:101B80009A68516099600861036801330360704787
:101B900030B40D68B5F1FF3F02D000F1080202E059
:101BA000026904E01A4653681C68AC42FAD95368CB
:101BB0004B6099608A60516008610368013303607B
:101BC00030BC7047036942688168916082684168EF
:101BD00051605A68824206D0002202611A68013AB6
:101BE0001A601868704782685A60F5E7084B1B68EE
:101BF0001B683BB1064B1B68DB68DB685A68054B0A
:101C00001A607047034B4FF0FF321A60704700BFF5
:101C100050450020FC45002010B50446006BFFF73E
:101C2000A5FE2046FFF7A2FE10BD2DE9F047804635
:101C30009946089D099F0A9C266B02F18042013A51
:101C400006EB820626F0070689B30A4600230F2B0F
:101C500007D8D056E11881F83400D15609B10133C4
:101C6000F5E7002384F84330042D00D90425E5620C
:101C700065644FF0000AC4F848A0201DFFF779FF03
:101C800004F11800FFF775FF2461C5F10505A56192
:101C90006462C4F84CA084F850A04A4641463046DD
:101CA000FFF7B0FE206007B13C60BDE8F08700237D
:101CB00084F83430D8E7000038B5002407E004EB9E
:101CC000840293000E481844FFF748FF0134042CA7
:101CD000F5D90C4D2846FFF741FF0B4C2046FFF786
:101CE0003DFF0A48FFF73AFF0948FFF737FF094869
:101CF000FFF734FF084B1D60084B1C6038BD00BF68
:101D000058450020D0450020E4450020084600202A
:101D10003446002020460020504500205445002035
:101D200010B50446FFF796FE204A1368013313608E
:101D30001F4B1B685BB11F4B1B686BB91C4B1B68AF
:101D4000DA6AE36A9A4207D8194B1C6004E0184B20
:101D50001C601368012B26D0174A136801331360E7
:101D6000E36A01229A401549086802430A6003EBBE
:101D700083039A00211D12481044FFF7FDFEFFF770
:101D800079FE0C4B1B686BB1094B1B68DA6AE36A7E
:101D90009A4207D20B4B4FF080521A60BFF34F8F1D
:101DA000BFF36F8F10BDFFF787FFD5E7BC4500205D
:101DB0004C4500201C460020C8450020CC45002092
:101DC0005845002004ED00E00F4B1B68D3B110B55F
:101DD000FFF740FE0D4BDB68DC68201DFFF7F2FECD
:101DE0000B4A1368013B1360074A1368013B1360F9
:101DF000FFF740FE2046FFF70FFF034B1B68002B49
:101E0000E6D110BD704700BFC04500203446002019
:101E1000BC45002008B5FFF7D7FF064B1B68012B18
:101E2000F9D9054B4FF080521A60BFF34F8FBFF3C3
:101E30006F8FF0E75845002004ED00E070B50446D0
:101E40000E461D4B1D681D4B18680430FFF7BAFE87
:101E500050B91A4B1B68DA6A012303FA02F21849D7
:101E60000B6823EA02030B60B4F1FF3F13D02C444C
:101E7000124B1B685C60A54216D8124B18680F4BBA
:101E800019680431FFF784FE0F4B1B68A34212D977
:101E90000D4B1C600FE0002EE9D0084B196804318F
:101EA0000A48FFF769FE06E0094B1868034B1968FA
:101EB0000431FFF76DFE70BD484600204C45002000
:101EC000CC45002050450020FC4500202046002045
:101ED000544500202DE9F04385B007468846154655
:101EE00099469000FFF7DCFCF8B106465420FFF756
:101EF000D7FC0446A8B10663D4B10023039302942F
:101F00000D9B01930C9B00934B462A464146384655
:101F1000FFF78BFE2046FFF703FF012005B0BDE869
:101F2000F0833046FFF722FDE6E74FF0FF30F5E79C
:101F30004FF0FF30F2E7000000B583B0114B019382
:101F400000230093802210491048FFF7C3FF0128A7
:101F500002D003B05DF804FB4FF0BF0383F3118898
:101F6000BFF36F8FBFF34F8F094B4FF0FF321A60F3
:101F7000084B01221A60084B00221A60FFF7D2FDBD
:101F8000E7E700BFF8450020A8310008151E00084B
:101F9000FC4500201C46002048460020024A1368E9
:101FA00001331360704700BFC4450020F8B5344BBF
:101FB0001B68002B5DD1334B1D6801351D60ADB131
:101FC000314B1B68AB424AD90027304B1B68DB6A98
:101FD00003EB83039A002E4B9B58012B00D901275A
:101FE0002C4B1B68002B49D0012747E02A4A116877
:101FF0002A4B186810601960294A1368013313606E
:10200000FFF7F4FDDCE70127234B1B681B6843B394
:10201000214B1B68DB68DC6863689D4226D3261D64
:102020003046FFF7CFFDA36A1BB104F11800FFF79C
:10203000C9FDE36A01229A401A49086802430A600E
:1020400003EB83039A00314611481044FFF794FDD7
:10205000E26A0E4B1B68DB6A9A42D4D2D4E70027AF
:10206000D2E7094B4FF0FF321A60AEE7064A136021
:10207000ABE70D4A13680133136000273846F8BDFB
:10208000C445002048460020FC4500204C45002067
:10209000584500204C460020504500205445002063
:1020A00000460020CC4500200446002038B5FFF74C
:1020B000D1FC2E4B1A68013A1A601B68002B4DD1D7
:1020C0002B4B1B683BB300242A4B1B682BB3294BBB
:1020D000DB68DC6804F11800FFF774FD251D284655
:1020E000FFF770FDE36A01229A4023490868024322
:1020F0000A6003EB83039A00294620481044FFF747
:102100003BFDE26A1E4B1B68DB6A9A42DCD31D4B27
:1021100001221A60D8E7002421E00CB1FFF766FD28
:10212000194B1C6874B9174B1B68E3B1174B4FF080
:1021300080521A60BFF34F8FBFF36F8F01240EE000
:10214000013C07D0FFF732FF0028F9D00D4B0122E8
:102150001A60F5E70C4B00221A60E4E70024FFF751
:1021600089FC204638BD0024F9E700BFC4450020A3
:10217000BC45002008460020CC45002058450020E2
:102180004C4500204C4600200446002004ED00E0B1
:1021900010B540B90A4B4FF080521A60BFF34F8F11
:1021A000BFF36F8F10BD0446FFF7F8FE00212046F5
:1021B000FFF744FEFFF77AFF0028EBD0F2E700BFFD
:1021C00004ED00E0194B1B681BBB10B4184B002238
:1021D0001A60184B1B68B3FA83F3DBB2C3F11F0319
:1021E00015489A00D418A10001444C6864684C60FA
:1021F0001A4491000831084484420ED003EB830353
:102200009A000D4B13445B68DA680C4B1A6010BCE3
:102210007047074B01221A607047606803EB830226
:102220009100054A0A445060E8E700BFC445002019
:102230004C460020CC450020584500204C4500204D
:1022400081F0004102E000BF83F0004330B54FEA67
:1022500041044FEA430594EA050F08BF90EA020FD4
:102260001FBF54EA000C55EA020C7FEA645C7FEA67
:10227000655C00F0E2804FEA5454D4EB5555B8BF8A
:102280006D420CDD2C4480EA020281EA030382EAFB
:10229000000083EA010180EA020281EA0303362D8D
:1022A00088BF30BD11F0004F4FEA01314FF4801C60
:1022B0004CEA113102D0404261EB410113F0004F72
:1022C0004FEA03334CEA133302D0524263EB430329
:1022D00094EA050F00F0A780A4F10104D5F1200EC7
:1022E0000DDB02FA0EFC22FA05F2801841F1000122
:1022F00003FA0EF2801843FA05F359410EE0A5F1F6
:1023000020050EF1200E012A03FA0EFC28BF4CF026
:10231000020C43FA05F3C01851EBE37101F00045DC
:1023200007D54FF0000EDCF1000C7EEB00006EEBE9
:102330000101B1F5801F1BD3B1F5001F0CD3490873
:102340005FEA30004FEA3C0C04F101044FEA4452CA
:1023500012F5800F80F09A80BCF1004F08BF5FEA51
:10236000500C50F1000041EB045141EA050130BD31
:102370005FEA4C0C404141EB010111F4801FA4F1D4
:102380000104E9D191F0000F04BF01460020B1FA29
:1023900081F308BF2033A3F10B03B3F120020CDA61
:1023A0000C3208DD02F1140CC2F10C0201FA0CF03F
:1023B00021FA02F10CE002F11402D8BFC2F1200CA4
:1023C00001FA02F120FA0CFCDCBF41EA0C0190405A
:1023D000E41AA2BF01EB0451294330BD6FEA0404A3
:1023E0001F3C1CDA0C340EDC04F11404C4F120028E
:1023F00020FA04F001FA02F340EA030021FA04F3A0
:1024000045EA030130BDC4F10C04C4F1200220FAF6
:1024100002F001FA04F340EA0300294630BD21FA34
:1024200004F0294630BD94F0000F83F4801306BFFA
:1024300081F480110134013D4EE77FEA645C18BFEE
:102440007FEA655C29D094EA050F08BF90EA020F85
:1024500005D054EA000C04BF1946104630BD91EA7D
:10246000030F1EBF0021002030BD5FEA545C05D180
:102470004000494128BF41F0004130BD14F58004BF
:102480003CBF01F5801130BD01F0004545F0FE4133
:1024900041F470014FF0000030BD7FEA645C1ABF68
:1024A000194610467FEA655C1CBF0B46024650EA9F
:1024B000013406BF52EA033591EA030F41F40021CB
:1024C00030BD00BF90F0000F04BF0021704730B551
:1024D0004FF4806404F132044FF000054FF0000126
:1024E00050E700BF90F0000F04BF0021704730B5E7
:1024F0004FF4806404F1320410F0004548BF4042BC
:102500004FF000013EE700BF42004FEAE2014FEA10
:1025100031014FEA02701FBF12F07F4393F07F4FEB
:1025200081F06051704732F07F4208BF704793F0EE
:102530007F4F04BF41F40021704730B54FF4607401
:1025400001F0004521F000411CE700BF50EA010204
:1025500008BF704730B54FF000050AE050EA0102AD
:1025600008BF704730B511F0004502D5404261EB1D
:1025700041014FF4806404F132045FEA915C3FF45E
:10258000D8AE4FF003025FEADC0C18BF03325FEAFB
:10259000DC0C18BF033202EBDC02C2F1200300FAAC
:1025A00003FC20FA02F001FA03FE40EA0E0021FAD1
:1025B00002F11444BDE600BF4A0011D212F5001228
:1025C00011D20DD56FF47873B3EB62520ED44FEA8B
:1025D000C12343F0004343EA505323FA02F070470B
:1025E0004FF00000704750EA013002D14FF0FF3049
:1025F00070474FF000007047014B1868704700BFEC
:102600003400002010B5431E0A44914200D110BD91
:1026100011F8014B03F8014FF7E730B5141E0546DA
:102620009BB0184605DA8B234FF0FF302B601BB0B0
:1026300030BD4FF40273ADF80C300CBF234604F1EB
:10264000FF33029305934FF6FF7300910491ADF8A9
:102650000E3002461E9B6946284600F073F8431C64
:10266000BCBF8B232B60002CE1D00022009B1A7092
:10267000DDE7000007B5009313460A46014603480C
:102680000068FFF7CAFF03B05DF804FB34000020C8
:102690002DE9F0478E6882469E420C469046994648
:1026A00037D88A8912F4906F31D0022325680969DE
:1026B0006F1A656905EB450595FBF3F509F1010313
:1026C0003B449D4238BF1D46530530D5294600F096
:1026D0002BFB064650B90C234FF0FF30CAF80030F0
:1026E000A38943F04003A381BDE8F0873A462169FE
:1026F000FFF788FFA38923F4906343F08003A3814D
:1027000026613E4426604E466561ED1BA5604E4540
:1027100000D94E4632464146206800F09FFAA36831
:1027200000209B1BA36023681E442660DCE72A462A
:1027300000F054FB06460028E2D12169504600F023
:10274000A7FAC8E72DE9F04F9DB003938B89804627
:102750001D060C4616460FD50B696BB9402100F0DB
:10276000E3FA2060206128B90C23C8F800304FF04C
:10277000FF30C7E0402363610023099320238DF8D5
:10278000293030234FF0010B8DF82A3037463D4673
:1027900015F8013B0BB1252B3ED1B7EB060A0BD048
:1027A0005346324621464046FFF772FF013000F0A3
:1027B000A480099B534409933B78002B00F09D8033
:1027C00000234FF0FF32CDE90523049307938DF8E2
:1027D00053301A932F46052217F8011B4F4800F07B
:1027E0002FFA049BD0B9D90644BF20228DF853207C
:1027F0001A0744BF2B228DF853202A782A2A15D095
:102800002F4600200A25079A394611F8013B303B34
:10281000092B4DD9B8B10FE02F46B8E73F4A3D46E6
:10282000801A0BFA00F018430490D3E7039A111DA5
:1028300012680391002A01DB079204E0524243F040
:102840000203079204933B782E2B0CD17B782A2B22
:1028500033D1039B02371A1D1B680392002BB8BFAC
:102860004FF0FF3305932E4D03223978284600F0B0
:10287000E7F938B14023401B03FA00F0049B01370D
:10288000034304933978062226487E1C8DF82810CD
:1028900000F0D6F9002838D0234B13BB039B073335
:1028A00023F0070308330393099B4B4409936DE717
:1028B00005FB023201200F46A6E700230A25194630
:1028C00001370593384610F8012B303A092A03D90D
:1028D000002BC8D00591C6E705FB0121012307465F
:1028E000F0E703AB00932246104B04A94046AFF338
:1028F0000080B0F1FF3F8146D6D1A3895B063FF54A
:1029000036AF09981DB0BDE8F08F03AB00932246A7
:10291000064B04A9404600F081F8EAE7B031000810
:10292000B6310008BA310008000000009126000806
:102930002DE9F04791461F468A680B690646934287
:10294000B8BF1346C9F8003091F843200C46DDF8B3
:10295000208012B10133C9F800302368990642BFC4
:10296000D9F800300233C9F80030256815F00605A3
:1029700007D104F1190AE368D9F800209B1AAB4289
:1029800029DC94F843302268003318BF01239206F3
:102990002ED404F1430239463046C047013021D0DD
:1029A0002368E56803F00603042B18BF0025D9F857
:1029B00000204FF0000908BFAD1AA368226908BFC4
:1029C00025EAE5759342C4BF9B1AED181A344D45AC
:1029D0001AD1002008E00123524639463046C0474C
:1029E000013003D14FF0FF30BDE8F0870135C2E779
:1029F0003020E11881F843005A1C94F84510224415
:102A0000023382F84310C4E7012322463946304698
:102A1000C0470130E6D009F10109D8E72DE9F043BC
:102A200001F1430C0C46097E85B06E291746064617
:102A300098460C9A00F0B38022D8632936D00AD881
:102A4000002900F0B980582900F0838004F1420584
:102A500084F8421032E0642901D06929F6D1206857
:102A60001368050603F104012AD51B681160002BC9
:102A700003DA2D225B4284F843206F480A2239E0B2
:102A8000732900F09D8008D86F2920D07029DDD1EE
:102A9000236843F02003236003E0752917D07829C9
:102AA000D4D17823654884F8453055E0136804F1A3
:102AB0004205191D1B68116084F8423001238CE027
:102AC0001B6810F0400F116018BF1BB2CFE71368EE
:102AD0002568181D1060280601D51B6802E06806ED
:102AE000FBD51B886F2914BF0A22082252480021F7
:102AF00084F843106568002DA560C0F295802168B8
:102B000021F004012160002B3DD1002D40F08E808A
:102B10006546082A0BD12368DB0708D5236962685C
:102B20009A42DEBF302305F8013C05F1FF35ACEBDE
:102B300005032361CDF800803B4603AA21463046B9
:102B4000FFF7F6FE01304DD14FF0FF3005B0BDE884
:102B5000F083394884F84510136821681D1D1B68EF
:102B600015600A060BD5CA0744BF41F02001216059
:102B70001BB9226822F0200222601022B7E74D061E
:102B800048BF9BB2EFE76546B3FBF2F102FB11339E
:102B9000C35C05F8013D0B460029F5D1B9E7136880
:102BA0002568181D6169106028061B6801D5196029
:102BB00002E06A06FBD51980002365462361B9E768
:102BC0001368191D11601D6862680021284600F015
:102BD00037F808B1401B606063682361002384F804
:102BE0004330A7E723692A4639463046C0470130BB
:102BF000AAD023689B0713D4E068039B9842B8BF10
:102C00001846A3E701234A4639463046C0470130FB
:102C10009AD00135E368039A9B1AAB42F2DCEBE7EA
:102C2000002504F11909F5E7002BACD1037804F174
:102C3000420584F842306CE7C1310008D231000807
:102C400010B5C9B202449042034601D1002303E00B
:102C50001C7801308C42F6D1184610BD884210B560
:102C600001EB020307D8421E99420AD011F8014B2A
:102C700002F8014FF8E78342F5D98118D21AD342FE
:102C800000D110BD13F8014D01F8014DF7E7000028
:102C900038B50546002943D051F8043C0C1F002BE1
:102CA000B8BFE41800F0D0F81E4A1368104633B9D4
:102CB000636014602846BDE8384000F0C6B8A342FF
:102CC0000BD921686218934201BF1A685B685218D9
:102CD000226063600460EDE713465A680AB1A242BD
:102CE000FAD919685818A0420BD120680144581825
:102CF00082421960DED110685268014419605A603E
:102D0000D8E702D90C232B60D4E7206821188A4227
:102D100001BF116852680918216062605C60C9E7F0
:102D200038BD00BF5046002070B5CD1C25F003050E
:102D300008350C2D38BF0C25002D064601DBA942B5
:102D400003D90C233360002070BD00F07DF8214AC8
:102D50001468214691B9204C23681BB9304600F015
:102D600063F820602946304600F05EF8431C24D109
:102D70000C233046336000F068F8E4E70B685B1B17
:102D800018D40B2B0FD90B60CC18CD50304600F067
:102D90005CF804F10B00231D20F00700C31AD3D008
:102DA0005A42E250D0E74B688C4216BF6360136012
:102DB0000C46EBE70C464968CCE7C41C24F003043E
:102DC000A04205D0211A304600F02EF80130CFD0B5
:102DD0002560DBE75046002054460020F8B5074642
:102DE00014460E4621B9BDE8F8401146FFF79CBFD6
:102DF00022B9FFF74DFF25462846F8BD00F026F81A
:102E0000A0420FD221463846FFF78EFF0546002824
:102E1000F2D031462246FFF7F5FB31463846FFF740
:102E200037FFE9E73546E7E738B50023054C0546A7
:102E300008462360FDF7A6FA431C02D1236803B1BC
:102E40002B6038BD584600207047704751F8043C4D
:102E5000181F002BBCBF0B58C01870475374616318
:102E60006B206672616D653A0A00000020523020C6
:102E70003D2020253038580A000000002052312023
:102E80003D2020253038580A000000002052322012
:102E90003D2020253038580A000000002052332001
:102EA0003D2020253038580A0000000020523132E1
:102EB000203D20253038580A00000000204C5220C8
:102EC0003D2020253038580A0000000020504320C3
:102ED0003D2020253038580A000000002050535271
:102EE000203D20253038580A000000004653522F5C
:102EF0004641523A0A0000002043465352203D20EA
:102F000020253038580A00002048465352203D20E2
:102F100020253038580A00002044465352203D20D6
:102F200020253038580A00002041465352203D20C9
:102F300020253038580A0000204D4D464152203D92
:102F400020253038580A00002042464152203D20BA
:102F500020253038580A00004D6973630A000000CC
:102F6000204C522F4558435F52455455524E3D20F8
:102F7000253038580A0000005B486172644661756C
:102F80006C745D0A000000005B4275734661756CED
:102F9000745D0A005B55736167654661756C745DAD
:102FA0000A0000004966204275666572204461741B
:102FB00061202564202025642000000046616C7398
:102FC0006520000046616C736565652000000000A7
:102FD000547275652000000053656E64696E672E3B
:102FE0002E2E2E2043462020200A000043616E54DE
:102FF00070204672616D65204964203D3A25640A5F
:1030000000000000446135616C204346200A000046
:1030100046462053656E64696E67202E2E2E0A0088
:1030200046432073656E642043616E547020746F54
:103030002043616E6966206964203D20256400009C
:1030400074782044617461202564203D00000000F4
:10305000547020496420746F2043616E6966203D7E
:103060002025640A000000000A00000000000000A3
:103070000000000000000840050000000000000003
:103080000000000000001440000000000000244088
:1030900000000000000034400400000000000001B7
:1030A000020000000000000014000000000000000A
:1030B00000000000000008400500000000000000C3
:1030C0000000000000001440000000000000244048
:1030D0000000000000003440040001000100010174
:1030E0000300000000000000000000000000184085
:1030F00000000000000034400000000000002440F8
:1031000001040000000100000000000000000000B9
:1031100000000000000018400000000000003440E3
:103120000000000000002440010401000001010033
:1031300001000000000000004D6F64756C653D25C6
:10314000782C41706949643D25782C6572726F72E4
:103150003D2578000000020003000400000000008C
:10316000000000004954495F34305F43614E5450C1
:103170005F5445414D0000004954495F34305F437E
:10318000414E54505F5465616D0000004D61696EA1
:103190005461736B000000005472616E736D69744A
:1031A0005461736B0000000049444C45000000006E
:1031B000232D302B2000686C4C0065666745464720
:1031C00000303132333435363738394142434445A3
:1031D0004600303132333435363738396162636412
:0331E00065660021
:1031E40078563412A4000020000000000000000003
:1031F40000000000010203040607080900A24A04B3
:1032040000000000010000000100010001000000B6
:10321400AAAAAAAA380000200000000000000000AA
:10322400000000000000000000000000000000009A
:10323400000000000000000000000000000000008A
:10324400000000000000000000000000000000007A
:10325400000000000000000000000000000000006A
:10326400000000000000000000000000000000005A
:0C327400000000000000000032547698BA
:040000050800010DE1
:00000001FF
