:020000040800F2
:100000000050002021020008270200082B020008EF
:100010009D020008A1020008E9020008000000009B
:100020000000000000000000000000005117000860
:100030003503000800000000B1170008F51700089C
:100040004D0300084D0300084D0300084D03000850
:100050004D0300084D0300084D0300084D03000840
:100060004D0300084D0300084D0300084D03000830
:100070004D0300084D0300084D0300084D03000820
:100080004D0300084D0300084D0300084D03000810
:100090004D0300084D0300084D0300084D03000800
:1000A0004D0300084D0300084D0300084D030008F0
:1000B0004D0300084D030008000000004D03000838
:1000C0004D03000800000000000000004D03000880
:1000D000000000004D0300084D0300080000000070
:1000E0004D0300084D0300084D0300080000000008
:1000F0000000000000000000000000000000000000
:1001000000000000000000005FF808F100B583B0B7
:1001100000F0AEF9304B314A1360314A1360314B75
:10012000314A32498B4204D21168196004330432D7
:10013000F7E72A4B1A682E4B9A4200D0FEE7284B6D
:100140001A682C4B9A42F9D1234B2B4A13602B4A45
:1001500013602B4B02E000221A600433294A9342B9
:10016000F9D3254B1B6813B9244B1B6803B1FEE779
:1001700000F08AF9694601A800F026F9224C234BC9
:10018000E41AA4100025AC4214DC214C214BE41AE3
:10019000A4100025AC4213DC0099019801F07EF90F
:1001A00005461D4C1D4BE41AA410002C0EDC2846FD
:1001B00000F0E6F8154B53F8253098470135E2E793
:1001C000144B53F8253098470135E3E7013C134BB6
:1001D00053F824309847E8E7BABADECA0000002096
:1001E000A800002000000020082E0008AC0000201D
:1001F0007856341232547698B000002048480020D7
:10020000B00000204C480020780300087803000864
:1002100078030008780300087803000878030008D2
:1002200008B5FFF773FF00BEFEE71EF0040F0CBF1A
:10023000EFF30880EFF309807146414A10472DE93A
:10024000F04182B004468846124B5E6B9F6B9D6AFC
:100250001B6B13F0020F03D00E4BDB6A002B0CDB81
:100260000D4800F0B9F8CDF800803B4632462946EB
:10027000204600F00DF900BEFEE74BF6AB6100F042
:1002800081F90028ECD0034B4FF00042DA6202B053
:10029000BDE8F08100ED00E0982C000800BEFEE70C
:1002A0001EF0040F0CBFEFF30880EFF309807146D6
:1002B000244A10472DE9F04182B004468846084B95
:1002C0005E6B9F6B9D6A074800F086F8CDF8008052
:1002D0003B4632462946204600F0DAF800BEFEE7EB
:1002E00000ED00E0A82C00081EF0040F0CBFEFF397
:1002F0000880EFF309807146134A10472DE9F04159
:1003000082B004468846084B5E6B9F6B9D6A074827
:1003100000F062F8CDF800803B4632462946204680
:1003200000F0B6F800BEFEE700ED00E0B42C0008D7
:1003300000BEFEE700BEFEE700BEFEE7704700001D
:100340003F020008B5020008FD02000800BEFEE7FB
:10035000082E000800000020AC000020082E000835
:100360000000000000000000B00000204C48002009
:08037000000000000000000085
:10038000FEE7000008B503460C4A12685AB10B4A52
:100390001068033323F003030344094A934206D849
:1003A000064A136008BD054A06491160EFE701F0EF
:1003B000B3FF0C2303604FF0FF30F3E7B4000020DD
:1003C000004C00204C48002001230360014B0B60CF
:1003D000704700BF040000200FB400B583B004AB29
:1003E00053F8042B01938021064801F0D3FF002825
:1003F00003DD0146034800F037F803B05DF804EB75
:1004000004B07047BC0000202DE9F04385B00446DD
:100410000F4643560BB10E461EE0042528462146E2
:10042000ABBE0446384605B0BDE8F08314F9011BA5
:1004300004AA1A4402F8101C0133AB42F6D304AAF2
:100440001344002203F8102C4FF00408E9464046FC
:100450004946ABBE8046761B002EE3D03546102EB3
:1004600028BF10250023E8E708B5FFF7CDFF08BD3A
:1004700008B500F0FDF8024A024B9A6008BD00BFC3
:100480000000000800ED00E008B500F019F908BD13
:10049000F8B504460D4617461E462748FFF79CFF51
:1004A00021682648FFF798FF61682548FFF794FF09
:1004B000A1682448FFF790FFE1682348FFF78CFF0D
:1004C00021692248FFF788FF61692148FFF784FF0F
:1004D000A1692048FFF780FFE1691F48FFF77CFF13
:1004E0001E48FFF779FF29461D48FFF775FF1D4C91
:1004F000E16A1D48FFF770FF216B1C48FFF76CFF96
:10050000E16B1B48FFF768FF15F0800F0AD115F467
:10051000004F0CD11748FFF75FFF06991648FFF709
:100520005BFFF8BD39461548FFF756FFEFE7314648
:100530001348FFF751FFEDE77C2B00088C2B0008D8
:100540009C2B0008AC2B0008BC2B0008CC2B00080F
:10055000DC2B0008EC2B0008FC2B00080C2C0008FE
:10056000182C000800ED00E0282C0008382C0008AA
:10057000482C0008782C0008802C0008582C000813
:10058000682C000883691A888A4201D000207047CD
:100590000268033A012A03D80233836101207047BD
:1005A0000020704782B00023019300932C4A136807
:1005B00043F4803313602A4B1B6803F40033009329
:1005C000019B01330193009B1BB9019BB3F5A06F05
:1005D000F1D1234B1B6813F4003F06D00123009395
:1005E000009B012B04D002B0704700230093F7E773
:1005F0001C4B1A6842F010021A601A6822F00302BB
:100600001A601A6842F002021A60A3F580535A6811
:100610005A605A685A605A6842F480625A605A684E
:1006200022F47C125A605A6842F4E8125A601A683E
:1006300042F080721A600A4B1B6813F0007FFAD0F8
:10064000074B5A6822F003025A605A6842F00202CD
:100650005A60034B5B6803F00C03082BF9D1C2E727
:10066000001002400020024008B5FFF79BFF08BDC4
:1006700008B5104B1A6842F001021A6059680E4A18
:100680000A405A601A6822F0847222F480321A609A
:100690001A6822F480221A605A6822F4FE025A6014
:1006A0004FF41F029A60FFF7DFFF044B4FF0006228
:1006B0009A6008BD001002400000FFF800ED00E065
:1006C0001F4B5B6803F00C03042B15D0082B17D0CD
:1006D0001BB11C4B1C4A1A6002E01A4B1A4A1A60E2
:1006E000174B5B68C3F30313184AD35CDAB215499E
:1006F0000B68D3400B607047124B134A1A60EFE748
:100700000F4A53685268C3F38343023312F4803FA5
:100710000AD00B4A526812F4003F0BD00C4A02FB7D
:1007200003F3084A1360DBE7094A02FB03F3054AB7
:100730001360D5E7044A02FB03F3024A1360CFE7D4
:10074000001002401C00002000127A000C00002063
:1007500000093D000B7C072B00D0704770B5437E2D
:100760005BB100241568661C2B5D03F00F03012BA1
:1007700011D023B1022B19D070BD0124F2E7AB5D7B
:100780004B72136802349B5D0B8013681B5D0B7208
:1007900006230B74F0E70C4600F10801D1E90001D3
:1007A00001F09AFD606007232374E5E701230B74D1
:1007B000022381F83830DFE7037A04E00268002181
:1007C000D1540133DBB2072BF8D90823836070477B
:1007D00001230374002380F838308361C36303620C
:1007E000C361438003804361436270470123037404
:1007F000022380F8383000238361C3630362C3613E
:10080000438003804361436270470000F0B486B0C8
:100810000E461F4601AC134D0FCD0FC4124B1B7873
:100820002BB901AA3260B268C2F112023A60012B00
:1008300008D0022B0ED001330B4A1370002006B0F3
:10084000F0BC70470DF10A023260B268C2F10C02CE
:100850003A60EEE70DF111023260B268C2F10502B2
:100860003A60E8E7C42C00083E01002028221A6004
:1008700000207047136889685B1A13600020704776
:100880002DE9F04184B006460C46904691F8383088
:10089000012B07D096F83030042B07D043B901273D
:1008A000022505E00846FFF793FFF3E7002701253F
:1008B000D8F80020154404A941F80C5DD25D02F07F
:1008C0000702A261012384F8383002232374708E5A
:1008D00004F13C052B46154F385CFFF7C7FF012894
:1008E00017D020B103281AD004B0BDE8F081E26B24
:1008F000A3699A4205D201232374002384F8383077
:10090000F2E7738E2A4601A90848C05CFFF7B2FFE0
:10091000F1E701232374002384F83830E4E701234E
:100920002374002384F83830DEE700BF2C00002059
:10093000F0B585B0438E364CE55C0B7C032B01D0C3
:1009400005B0F0BD90F8303083B1002316685F1C0D
:10095000F45C04F00F044B8803F00F039C4207D0B3
:1009600001230B74002381F83830E9E70123EDE718
:100970003E4401969368013B03930B880BB1013B06
:100980000B800E4604460B880BB94B7A93B906F1DF
:100990003C0201A92846FFF76DFF012832D000284C
:1009A000CED1738801337380D4E90A0101F094FC3D
:1009B0007060C5E700F12001D1E9000101F08CFC75
:1009C000706006F13C0201A92846FFF753FF7388C7
:1009D00001337380F36B33B158B9042333740123AB
:1009E00086F83830ACE701233374002386F83830BA
:1009F000A6E733880133338001233374002386F85C
:100A000038309DE701233374002386F8383097E7A8
:100A10002C00002070B5002415E00E4E65002A1948
:100A20005300334458880C4B03EB8010FFF7DEFE75
:100A300025446B001E447088084B03EB8010FFF7C1
:100A4000C7FE0134A4B2012CE7D9054B01221A706C
:100A500070BD00BF3000002078470020784600209D
:100A60003D010020304B03EB8013304A1A63304BBA
:100A70001B78002B54D0002954D0012801D9012023
:100A80007047294B03EB80131B7C012B01D0012005
:100A9000704730B48A68244B03EB80139A610322B9
:100AA00083F8382000225A6300EB8003DA00214BE0
:100AB00013445A7E042A02D012B9062400E0072407
:100AC000194B03EB80139B69A34204D9042A0FD06E
:100AD0007AB905240DE0144A02EB8010026B012163
:100AE000416313708369C36206230374002015E019
:100AF0000624C3F303220C4B03EB8010016B01238C
:100B0000436342F010030B708169026B436B5D1C01
:100B10004563D154C46206230374002030BC70477F
:100B20000120704701207047784700207046002060
:100B30003D010020582D000849B108B5044B1B7831
:100B40000BB1012800D908BD00F0B8FBFBE77047E6
:100B50003D01002010B50C460021012000F0CAF82C
:100B600021460120FFF7E8FF002010BDF0B585B059
:100B700005460C46408B374B1F5C0B6A5BB300236A
:100B80004B636B7E0BB901234B63638801339BB2CC
:100B9000638003F00F03216B626B501C6063203392
:100BA0008B5423880BB1013B2380236A072B20D968
:100BB0000723E362688B04F12003002204F124017F
:100BC000254E305CFFF722FE0646E26AE3691344D5
:100BD000E361002317E001F12003002224311E4EBF
:100BE000305CFFF713FE0646E26AE3691344E361F3
:100BF000EFE7E362DEE7606A216B626B1A44C05C78
:100C000088540133DBB2E26A9342F4D3636B1A4433
:100C100062639EB9236B019303922B7F012B10D04B
:100C2000D5E9000101F058FB60600823237401A995
:100C30003846FFF78FFF40B1012808D0304605B095
:100C4000F0BD01A8FFF7B8FDEAE70026F6E70126A8
:100C5000F4E700BF200000202800002038B58A6992
:100C6000CB699A4210D90C4605460B880BB94B7AD2
:100C700083B96368C3B1237A13F0800F2FD1013396
:100C800063600523237404E001230B74022381F8BD
:100C9000383038BD00F10801D1E9000101F01CFB3A
:100CA000606007232374F4E7D5E9040101F014FB25
:100CB000606021462846FFF759FF012809D0022825
:100CC000E7D1D5E9040101F007FB60600623237436
:100CD000DFE701232374022384F83830D9E70F3388
:100CE000DBB2082B02D801236360CAE7802363606C
:100CF000C7E7000010B52B4C04EB801400EB80021A
:100D0000D300294A1344294A12780AB1012800D98C
:100D100010BD39B10129FBD101232374022384F8CA
:100D20003830F5E71F4A02EB8012127C082A0ED0F9
:100D30001F4B03EB80131B7C092BE9D11C4B03EBEE
:100D4000801003230374002380F83830E0E7154A4D
:100D500002EB8012126B127802F03002102A0CD0D3
:100D6000202A1AD0002AD3D10E4B03EB8010012386
:100D70000374022380F83830CAE700EB8003DA00FE
:100D8000094B1344074C04EB8014D3E9020101F032
:100D9000A3FA606007232374BAE721461846FFF7D9
:100DA0005DFFB5E778470020582D00083D01002081
:100DB0007846002070B586B004460D4601AB002190
:100DC000019102910393052A43D0062A49D0042AAF
:100DD0001DD094F83630012B49D0D4E9060101F03A
:100DE0007BFA686009232B74628E234B03EB82121B
:100DF00003991163628E03EB8213059A5A63238F62
:100E000003A91E4AD05CFFF7A5FE06B070BD3023D3
:100E10008DF8043090F83030042B10D02378B34292
:100E200000D333466B722B80039A5370D4E90201CE
:100E300001F052FA039B987003230593C9E7EB6B0B
:100E40000F4EA6FB03269B1B06EB5306C6F3870635
:100E5000E4E731238DF804300323059304232B7436
:100E6000B7E732238DF8043003230593B1E703A8D5
:100E7000FFF7A2FCB1E700BF784600202400002065
:100E800025499224944B1B78012B00D070472DE903
:100E9000F04F83B0002576E0904B03EB84135B6842
:100EA00023B1013B8D4A02EB841253608B4B03EB61
:100EB00084135B68002B5AD1A201884B03EB020A12
:100EC00006238AF81030864B1344D3E90A23CDE970
:100ED00000239AF8080001F095F902460B46DDE977
:100EE000000101F041F801F0F7F9CAF804004146A9
:100EF0003846FFF73BFE002839D0022808D0774B50
:100F000003EB841301221A74022283F838202EE0A6
:100F1000724B03EB84135B6823B1013B6F4A02EB16
:100F2000841253606D4B03EB84135B68FBB96B4B0E
:100F300003EB841301221A74022283F8382016E08E
:100F4000664B03EB84135B6823B1013B634A02EBFE
:100F500084125360614B03EB84135B683BB95F4BB6
:100F600003EB841301221A74022283F838205D4BAC
:100F700003EB84131B7C042B77D0092B5CD0032B51
:100F800041D00135ADB2012D00F20C8105EB4503D6
:100F90005A00554B13445C8804EB8403DF00534B29
:100FA0001F44A6014E4B06EB03094C4B06EB03080E
:100FB0004C4B1E4498F81030053B032BD7D801A2A8
:100FC00052F823F0990E0008EF0E0008410F0008B8
:100FD000D50F0008414B03EB84135B6823B1013B41
:100FE0003E4A02EB841253603C4B03EB84135B6874
:100FF000002BBCD1394B03EB841301221A7402225B
:1010000083F83820B3E7374B03EB84135B6823B1D5
:10101000013B344A02EB84125360324B03EB8413DE
:101020005B68002BADD12F4B03EB84140123237499
:10103000002384F83830A4E72A4B03EB84135B6861
:1010400023B1013B274A02EB84125360254B03EB8B
:1010500084135B68002B94D1224B03EB841401238F
:101060002374002384F838308BE71E4B03EB841382
:101070005B6823B1013B1B4A02EB84125360194B9E
:1010800003EB84135B68002B34D1194B1A7891B2AF
:10109000134B03EB84131B8A99420AD9114B03EBC0
:1010A000841401232374002384F83830104A137009
:1010B00067E701320E4B1A70052231464846FFF7AA
:1010C00079FEA401064A2244064B1C44D2E90801D9
:1010D00001F002F9606054E73D01002078470020EC
:1010E000D82C00087846002030000020582D000839
:1010F0003C01002000273F60BF604FEA841B2B4B60
:101100005B445B8E0BF1380ADFF8A880C2440AF119
:10111000040A524639462648C05CFFF7ABFB08EB91
:101120000B031A6B3A605A6BBA60DB6B9A423FF65C
:1011300028AF1E4B03EB84135B8E524639461C4886
:10114000C05CFFF797FB58B101287FF41AAF194B29
:1011500003EB841401232374002384F8383010E750
:10116000144B03EB84139A69DB699A4208D1114B43
:1011700003EB841401232374002384F8383000E740
:10118000042231464846FFF715FEA401074A2244CF
:10119000084B1C44D2E90A0101F09EF86060032369
:1011A0002374EEE603B0BDE8F08F00BFD82C000832
:1011B0002C00002078460020F0B585B006460C468D
:1011C000154691F83830012B27D02B689A1C0192D4
:1011D000AA68023A03921D782D0205F470655B78C7
:1011E0001D44A561012384F8383002232374D6E915
:1011F000080101F071F86060708E04F13C073B4615
:101200002A4601A92B4D285CFFF730FB01283FD06F
:1012100038B1032842D005B0F0BD0846FFF7D8FA30
:10122000D3E7E26B039B9A4205D201232374002388
:1012300084F83830EFE7738E3A4601A91D48C05C48
:10124000FFF718FB0028E6D1E26BA1691A4BA3FB5C
:101250000103C91A03EB51039B08C3EBC3039A4272
:101260000AD2D6E9080101F037F86060042323743C
:10127000012384F83830CEE703232374012384F854
:1012800038306380042221463046FFF793FDC2E7E1
:1012900001232374002384F83830BCE7062221465A
:1012A0003046FFF787FD01232374002384F838308C
:1012B000B1E700BF2C0000202549922408B5374B28
:1012C00003EB801393F83030042B02D013B90122C2
:1012D00000E000220B689B5C03F03003102B2FD042
:1012E0001AD9202B35D0302B32D18B68072B07D859
:1012F00000EB8003DA002A4B13441B7F012B27D01D
:1013000000EB8002D3000A46264901EB80112448F5
:101310001844FFF71FFA1BE0D3B98B68072B06D8D8
:101320001E4B03EB801393F83630012B10D0800155
:101330000A461D490144194B1844FFF7A1FA07E07A
:1013400080010A4618490144144B1844FFF734FF42
:1013500008BD8301144AD35AB3B902EB80135B7AF8
:1013600093B18B68072B06D80C4B03EB801393F8D3
:101370003630012BECD080010A460B490144074B63
:101380001844FFF7D5FAE3E780010A46064901440D
:10139000024B1844FFF7CCFADAE700BFD82C00085C
:1013A000582D00087847002078460020B0F5803F8F
:1013B0000BD0B0F1807F0ED0012800D07047094BD0
:1013C0001B6813F0020FFAD07047064B1B6813F42A
:1013D000003FFAD07047034B1A68034B1A42FAD009
:1013E000ECE700BF0010024000000102034A53680E
:1013F00023F0030318435060704700BF0010024001
:1014000008B541B1012905D1064A136803431360A9
:10141000FFF7CCFF08BD034A136823EA0000106001
:10142000F8E700BF00100240024A93691843906138
:10143000704700BF00100240024AD3691843D061D0
:10144000704700BF0010024000B589B003AC0D4DDD
:101450000FCD0FC42B68238003AB0093122302939C
:1014600003E041F2883000F023FD074B1B68012B9D
:10147000F7D169460120FFF7F5FA034B00221A6005
:10148000EFE700BFA82D00083C00002008B5FFF7DB
:10149000F9FC4FF47A7000F00BFDF8E700B583B06B
:1014A00001214FF48030FFF7ABFF0120FFF79EFFD3
:1014B0000820FFF7B9FF4FF00070FFF7BDFF0020D5
:1014C000FFF7A8FA002401940423009323464FF465
:1014D0007A720849084800F08DFB019405230093B7
:1014E00023464FF47A720549054800F083FB00F06B
:1014F000B3FBFEE7BC2D00088D140008C42D0008C6
:1015000049140008124A12F0070F1ED0D11D21F015
:101510000701C1F5884313440A460E4802600021C2
:1015200041601344083B23F007030B4803605960F4
:101530001960991A51601360084B1960084B1960C3
:10154000084B4FF000421A6070474FF48843E4E7BD
:101550004401002058450020400100204C45002057
:10156000484500204445002010B4134A00E01A46C4
:1015700013688342FBD351685418844209D04168F0
:101580004418A3420AD00360904200D0106010BCFF
:1015900070474068014451601046F0E7074C2468EA
:1015A000A34206D05B681944416013681B6803605E
:1015B000EAE70460E8E700BF58450020400100204A
:1015C00070B5054600F07AFB2A4B1B68A3B12A4B85
:1015D0001B681D4246D135B1083515F0070F02D002
:1015E00025F007050835002D3ED0244B1B68AB4283
:1015F0003CD3234A146804E0FFF784FFE7E7224660
:101600001C466368AB4202D22368002BF7D1194B0A
:101610001B68A3422CD016680836236813606368E1
:101620005B1B102B18D8626814490B689B1A0B605F
:10163000144909688B4201D212490B600E4B1B689A
:1016400013436360002323600F4A13680133136060
:1016500000F0BCFB304670BD601943606560FFF769
:1016600083FFE0E70026F3E70026F1E70026EFE737
:101670000026EDE7400100204445002048450020B9
:10168000584500204C4500205045002018B338B57F
:101690000446A0F1080550F8042C0F4909680A42D5
:1016A00002D050F8080C00B138BD22EA010244F81B
:1016B000042C00F003FB54F8041C084A13680B4484
:1016C00013602846FFF750FF054A13680133136083
:1016D00000F07CFBE8E770474445002048450020C7
:1016E0005445002082B0002301934FF0BF0383F3E1
:1016F0001188BFF36F8FBFF34F8F019B002BFCD07E
:1017000002B0704706480068006880F3088862B637
:1017100061B6BFF34F8FBFF36F8F00DF00BF0000D4
:1017200008ED00E04FF0807340F8043C21F0010127
:1017300040F8081C034B40F80C3C40F8202C403883
:10174000704700BFE5160008000000000000000020
:10175000074B19680868B0E8F00F80F30988BFF3F9
:101760006F8F4FF0000080F311884EF00D0E704720
:10177000604500204FF0BF0383F31188BFF36F8FE4
:10178000BFF34F8F024A136801331360704700BFE5
:1017900040000020034A1368013B13600BB983F338
:1017A0001188704740000020000000000000000089
:1017B000EFF30980BFF36F8F0D4B1A6820E9F00F2C
:1017C00010602DE908404FF0BF0080F3118800F051
:1017D00089FB4FF0000080F31188BDE808401968CC
:1017E0000868B0E8F00F80F30988BFF36F8F704787
:1017F0006045002008B54FF0BF0383F31188BFF3A5
:101800006F8FBFF34F8F00F061FA18B1034B4FF0A9
:1018100080521A60002383F3118808BD04ED00E0B4
:10182000054B00221A6005490A60054A41F63F71DE
:10183000116007221A60704710E000E018E000E035
:1018400014E000E010B50B4B1A6842F47F021A60F6
:101850001A6842F07F421A60FFF7E2FF0024064B4D
:101860001C60FFF74FFF00F03DFBFFF73BFF2046FA
:1018700010BD00BF20ED00E04000002000F1080393
:1018800043604FF0FF328260C36003610023036056
:10189000704700230361704743684B609A688A6011
:1018A0009A6851609960086103680133036070476A
:1018B00030B40D68B5F1FF3F02D000F1080202E03C
:1018C000026904E01A4653681C68AC42FAD95368AE
:1018D0004B6099608A60516008610368013303605E
:1018E00030BC7047036942688168916082684168D2
:1018F00051605A68824206D0002202611A68013A99
:101900001A601868704782685A60F5E7084B1B68D0
:101910001B683BB1064B1B68DB68DB685A68054BEC
:101920001A607047034B4FF0FF321A60704700BFD8
:10193000644500201046002010B50446006BFFF7F8
:10194000A5FE2046FFF7A2FE10BD2DE9F047804618
:101950009946089D099F0A9C266B02F18042013A34
:1019600006EB820626F0070689B30A4600230F2BF2
:1019700007D8D056E11881F83400D15609B10133A7
:10198000F5E7002384F84330042D00D90425E562EF
:1019900065644FF0000AC4F848A0201DFFF779FFE6
:1019A00004F11800FFF775FF2461C5F10505A56175
:1019B0006462C4F84CA084F850A04A4641463046C0
:1019C000FFF7B0FE206007B13C60BDE8F087002360
:1019D00084F83430D8E7000038B5002407E004EB81
:1019E000840293000E481844FFF748FF0134042C8A
:1019F000F5D90C4D2846FFF741FF0B4C2046FFF769
:101A00003DFF0A48FFF73AFF0948FFF737FF09484B
:101A1000FFF734FF084B1D60084B1C6038BD00BF4A
:101A20006C450020E4450020F84500201C460020BD
:101A300048460020344600206445002068450020C8
:101A400010B50446FFF796FE204A13680133136071
:101A50001F4B1B685BB11F4B1B686BB91C4B1B6892
:101A6000DA6AE36A9A4207D8194B1C6004E0184B03
:101A70001C601368012B26D0174A136801331360CA
:101A8000E36A01229A401549086802430A6003EBA1
:101A900083039A00211D12481044FFF7FDFEFFF753
:101AA00079FE0C4B1B686BB1094B1B68DA6AE36A61
:101AB0009A4207D20B4B4FF080521A60BFF34F8F00
:101AC000BFF36F8F10BDFFF787FFD5E7D04500202C
:101AD0006045002030460020DC450020E045002025
:101AE0006C45002004ED00E00F4B1B68D3B110B52E
:101AF000FFF740FE0D4BDB68DC68201DFFF7F2FEB0
:101B00000B4A1368013B1360074A1368013B1360DB
:101B1000FFF740FE2046FFF70FFF034B1B68002B2B
:101B2000E6D110BD704700BFD445002048460020D4
:101B3000D045002008B5FFF7D7FF064B1B68012BE7
:101B4000F9D9054B4FF080521A60BFF34F8FBFF3A6
:101B50006F8FF0E76C45002004ED00E070B504469F
:101B60000E461D4B1D681D4B18680430FFF7BAFE6A
:101B700050B91A4B1B68DA6A012303FA02F21849BA
:101B80000B6823EA02030B60B4F1FF3F13D02C442F
:101B9000124B1B685C60A54216D8124B18680F4B9D
:101BA00019680431FFF784FE0F4B1B68A34212D95A
:101BB0000D4B1C600FE0002EE9D0084B1968043172
:101BC0000A48FFF769FE06E0094B1868034B1968DD
:101BD0000431FFF76DFE70BD5C46002060450020BB
:101BE000E0450020644500201046002034460020D7
:101BF000684500202DE9F04385B007468846154624
:101C000099469000FFF7DCFCF8B106465420FFF738
:101C1000D7FC0446A8B10663D4B100230393029411
:101C20000D9B01930C9B00934B462A464146384638
:101C3000FFF78BFE2046FFF703FF012005B0BDE84C
:101C4000F0833046FFF722FDE6E74FF0FF30F5E77F
:101C50004FF0FF30F2E7000000B583B0114B019365
:101C600000230093802210491048FFF7C3FF01288A
:101C700002D003B05DF804FB4FF0BF0383F311887B
:101C8000BFF36F8FBFF34F8F094B4FF0FF321A60D6
:101C9000084B01221A60084B00221A60FFF7D2FDA0
:101CA000E7E700BF0C460020CC2D0008351B0008DC
:101CB00010460020304600205C460020024A13688F
:101CC00001331360704700BFD8450020F8B5344B8E
:101CD0001B68002B5DD1334B1D6801351D60ADB114
:101CE000314B1B68AB424AD90027304B1B68DB6A7B
:101CF00003EB83039A002E4B9B58012B00D901273D
:101D00002C4B1B68002B49D0012747E02A4A116859
:101D10002A4B186810601960294A13680133136050
:101D2000FFF7F4FDDCE70127234B1B681B6843B377
:101D3000214B1B68DB68DC6863689D4226D3261D47
:101D40003046FFF7CFFDA36A1BB104F11800FFF77F
:101D5000C9FDE36A01229A401A49086802430A60F1
:101D600003EB83039A00314611481044FFF794FDBA
:101D7000E26A0E4B1B68DB6A9A42D4D2D4E7002792
:101D8000D2E7094B4FF0FF321A60AEE7064A136004
:101D9000ABE70D4A13680133136000273846F8BDDE
:101DA000D84500205C4600201046002060450020F9
:101DB0006C450020604600206445002068450020F6
:101DC00014460020E04500201846002038B5FFF7F3
:101DD000D1FC2E4B1A68013A1A601B68002B4DD1BA
:101DE0002B4B1B683BB300242A4B1B682BB3294B9E
:101DF000DB68DC6804F11800FFF774FD251D284638
:101E0000FFF770FDE36A01229A4023490868024304
:101E10000A6003EB83039A00294620481044FFF729
:101E20003BFDE26A1E4B1B68DB6A9A42DCD31D4B0A
:101E300001221A60D8E7002421E00CB1FFF766FD0B
:101E4000194B1C6874B9174B1B68E3B1174B4FF063
:101E500080521A60BFF34F8FBFF36F8F01240EE0E3
:101E6000013C07D0FFF732FF0028F9D00D4B0122CB
:101E70001A60F5E70C4B00221A60E4E70024FFF734
:101E800089FC204638BD0024F9E700BFD845002072
:101E9000D04500201C460020E04500206C45002075
:101EA00060450020604600201846002004ED00E058
:101EB00010B540B90A4B4FF080521A60BFF34F8FF4
:101EC000BFF36F8F10BD0446FFF7F8FE00212046D8
:101ED000FFF744FEFFF77AFF0028EBD0F2E700BFE0
:101EE00004ED00E0194B1B681BBB10B4184B00221B
:101EF0001A60184B1B68B3FA83F3DBB2C3F11F03FC
:101F000015489A00D418A10001444C6864684C60DC
:101F10001A4491000831084484420ED003EB830335
:101F20009A000D4B13445B68DA680C4B1A6010BCC6
:101F30007047074B01221A607047606803EB830209
:101F40009100054A0A445060E8E700BFD8450020E8
:101F500060460020E04500206C45002060450020E0
:101F600081F0004102E000BF83F0004330B54FEA4A
:101F700041044FEA430594EA050F08BF90EA020FB7
:101F80001FBF54EA000C55EA020C7FEA645C7FEA4A
:101F9000655C00F0E2804FEA5454D4EB5555B8BF6D
:101FA0006D420CDD2C4480EA020281EA030382EADE
:101FB000000083EA010180EA020281EA0303362D70
:101FC00088BF30BD11F0004F4FEA01314FF4801C43
:101FD0004CEA113102D0404261EB410113F0004F55
:101FE0004FEA03334CEA133302D0524263EB43030C
:101FF00094EA050F00F0A780A4F10104D5F1200EAA
:102000000DDB02FA0EFC22FA05F2801841F1000104
:1020100003FA0EF2801843FA05F359410EE0A5F1D8
:1020200020050EF1200E012A03FA0EFC28BF4CF009
:10203000020C43FA05F3C01851EBE37101F00045BF
:1020400007D54FF0000EDCF1000C7EEB00006EEBCC
:102050000101B1F5801F1BD3B1F5001F0CD3490856
:102060005FEA30004FEA3C0C04F101044FEA4452AD
:1020700012F5800F80F09A80BCF1004F08BF5FEA34
:10208000500C50F1000041EB045141EA050130BD14
:102090005FEA4C0C404141EB010111F4801FA4F1B7
:1020A0000104E9D191F0000F04BF01460020B1FA0C
:1020B00081F308BF2033A3F10B03B3F120020CDA44
:1020C0000C3208DD02F1140CC2F10C0201FA0CF022
:1020D00021FA02F10CE002F11402D8BFC2F1200C87
:1020E00001FA02F120FA0CFCDCBF41EA0C0190403D
:1020F000E41AA2BF01EB0451294330BD6FEA040486
:102100001F3C1CDA0C340EDC04F11404C4F1200270
:1021100020FA04F001FA02F340EA030021FA04F382
:1021200045EA030130BDC4F10C04C4F1200220FAD9
:1021300002F001FA04F340EA0300294630BD21FA17
:1021400004F0294630BD94F0000F83F4801306BFDD
:1021500081F480110134013D4EE77FEA645C18BFD1
:102160007FEA655C29D094EA050F08BF90EA020F68
:1021700005D054EA000C04BF1946104630BD91EA60
:10218000030F1EBF0021002030BD5FEA545C05D163
:102190004000494128BF41F0004130BD14F58004A2
:1021A0003CBF01F5801130BD01F0004545F0FE4116
:1021B00041F470014FF0000030BD7FEA645C1ABF4B
:1021C000194610467FEA655C1CBF0B46024650EA82
:1021D000013406BF52EA033591EA030F41F40021AE
:1021E00030BD00BF90F0000F04BF0021704730B534
:1021F0004FF4806404F132044FF000054FF0000109
:1022000050E700BF90F0000F04BF0021704730B5C9
:102210004FF4806404F1320410F0004548BF40429E
:102220004FF000013EE700BF42004FEAE2014FEAF3
:1022300031014FEA02701FBF12F07F4393F07F4FCE
:1022400081F06051704732F07F4208BF704793F0D1
:102250007F4F04BF41F40021704730B54FF46074E4
:1022600001F0004521F000411CE700BF50EA0102E7
:1022700008BF704730B54FF000050AE050EA010290
:1022800008BF704730B511F0004502D5404261EB00
:1022900041014FF4806404F132045FEA915C3FF441
:1022A000D8AE4FF003025FEADC0C18BF03325FEADE
:1022B000DC0C18BF033202EBDC02C2F1200300FA8F
:1022C00003FC20FA02F001FA03FE40EA0E0021FAB4
:1022D00002F11444BDE600BF4A0011D212F500120B
:1022E00011D20DD56FF47873B3EB62520ED44FEA6E
:1022F000C12343F0004343EA505323FA02F07047EE
:102300004FF00000704750EA013002D14FF0FF302B
:1023100070474FF000007047014B1868704700BFCE
:102320004400002010B5431E0A44914200D110BD64
:1023300011F8014B03F8014FF7E730B5141E0546BD
:102340009BB0184605DA8B234FF0FF302B601BB093
:1023500030BD4FF40273ADF80C300CBF234604F1CE
:10236000FF33029305934FF6FF7300910491ADF88C
:102370000E3002461E9B6946284600F073F8431C47
:10238000BCBF8B232B60002CE1D00022009B1A7075
:10239000DDE7000007B5009313460A4601460348EF
:1023A0000068FFF7CAFF03B05DF804FB440000209B
:1023B0002DE9F0478E6882469E420C46904699462B
:1023C00037D88A8912F4906F31D0022325680969C1
:1023D0006F1A656905EB450595FBF3F509F10103F6
:1023E0003B449D4238BF1D46530530D5294600F079
:1023F0002BFB064650B90C234FF0FF30CAF80030D3
:10240000A38943F04003A381BDE8F0873A462169E0
:10241000FFF788FFA38923F4906343F08003A3812F
:1024200026613E4426604E466561ED1BA5604E4523
:1024300000D94E4632464146206800F09FFAA36814
:1024400000209B1BA36023681E442660DCE72A460D
:1024500000F054FB06460028E2D12169504600F006
:10246000A7FAC8E72DE9F04F9DB003938B8980460A
:102470001D060C4616460FD50B696BB9402100F0BE
:10248000E3FA2060206128B90C23C8F800304FF02F
:10249000FF30C7E0402363610023099320238DF8B8
:1024A000293030234FF0010B8DF82A3037463D4656
:1024B00015F8013B0BB1252B3ED1B7EB060A0BD02B
:1024C0005346324621464046FFF772FF013000F086
:1024D000A480099B534409933B78002B00F09D8016
:1024E00000234FF0FF32CDE90523049307938DF8C5
:1024F00053301A932F46052217F8011B4F4800F05E
:102500002FFA049BD0B9D90644BF20228DF853205E
:102510001A0744BF2B228DF853202A782A2A15D077
:102520002F4600200A25079A394611F8013B303B17
:10253000092B4DD9B8B10FE02F46B8E73F4A3D46C9
:10254000801A0BFA00F018430490D3E7039A111D88
:1025500012680391002A01DB079204E0524243F023
:102560000203079204933B782E2B0CD17B782A2B05
:1025700033D1039B02371A1D1B680392002BB8BF8F
:102580004FF0FF3305932E4D03223978284600F093
:10259000E7F938B14023401B03FA00F0049B0137F0
:1025A000034304933978062226487E1C8DF82810B0
:1025B00000F0D6F9002838D0234B13BB039B073318
:1025C00023F0070308330393099B4B4409936DE7FA
:1025D00005FB023201200F46A6E700230A25194613
:1025E00001370593384610F8012B303A092A03D9F0
:1025F000002BC8D00591C6E705FB01210123074642
:10260000F0E703AB00932246104B04A94046AFF31A
:102610000080B0F1FF3F8146D6D1A3895B063FF52C
:1026200036AF09981DB0BDE8F08F03AB009322468A
:10263000064B04A9404600F081F8EAE7D42D0008D3
:10264000DA2D0008DE2D000800000000B12300088C
:102650002DE9F04791461F468A680B69064693426A
:10266000B8BF1346C9F8003091F843200C46DDF896
:10267000208012B10133C9F800302368990642BFA7
:10268000D9F800300233C9F80030256815F0060586
:1026900007D104F1190AE368D9F800209B1AAB426C
:1026A00029DC94F843302268003318BF01239206D6
:1026B0002ED404F1430239463046C047013021D0C0
:1026C0002368E56803F00603042B18BF0025D9F83A
:1026D00000204FF0000908BFAD1AA368226908BFA7
:1026E00025EAE5759342C4BF9B1AED181A344D458F
:1026F0001AD1002008E00123524639463046C0472F
:10270000013003D14FF0FF30BDE8F0870135C2E75B
:102710003020E11881F843005A1C94F845102244F7
:10272000023382F84310C4E701232246394630467B
:10273000C0470130E6D009F10109D8E72DE9F0439F
:1027400001F1430C0C46097E85B06E2917460646FA
:1027500098460C9A00F0B38022D8632936D00AD864
:10276000002900F0B980582900F0838004F1420567
:1027700084F8421032E0642901D06929F6D120683A
:102780001368050603F104012AD51B681160002BAC
:1027900003DA2D225B4284F843206F480A2239E095
:1027A000732900F09D8008D86F2920D07029DDD1D1
:1027B000236843F02003236003E0752917D07829AC
:1027C000D4D17823654884F8453055E0136804F186
:1027D0004205191D1B68116084F8423001238CE00A
:1027E0001B6810F0400F116018BF1BB2CFE71368D1
:1027F0002568181D1060280601D51B6802E06806D0
:10280000FBD51B886F2914BF0A22082252480021D9
:1028100084F843106568002DA560C0F2958021689A
:1028200021F004012160002B3DD1002D40F08E806D
:102830006546082A0BD12368DB0708D5236962683F
:102840009A42DEBF302305F8013C05F1FF35ACEBC1
:1028500005032361CDF800803B4603AA214630469C
:10286000FFF7F6FE01304DD14FF0FF3005B0BDE867
:10287000F083394884F84510136821681D1D1B68D2
:1028800015600A060BD5CA0744BF41F0200121603C
:102890001BB9226822F0200222601022B7E74D0601
:1028A00048BF9BB2EFE76546B3FBF2F102FB113381
:1028B000C35C05F8013D0B460029F5D1B9E7136863
:1028C0002568181D6169106028061B6801D519600C
:1028D00002E06A06FBD51980002365462361B9E74B
:1028E0001368191D11601D6862680021284600F0F8
:1028F00037F808B1401B606063682361002384F8E7
:102900004330A7E723692A4639463046C04701309D
:10291000AAD023689B0713D4E068039B9842B8BFF2
:102920001846A3E701234A4639463046C0470130DE
:102930009AD00135E368039A9B1AAB42F2DCEBE7CD
:10294000002504F11909F5E7002BACD1037804F157
:10295000420584F842306CE7E52D0008F62D0008AA
:1029600010B5C9B202449042034601D1002303E0EE
:102970001C7801308C42F6D1184610BD884210B543
:1029800001EB020307D8421E99420AD011F8014B0D
:1029900002F8014FF8E78342F5D98118D21AD342E1
:1029A00000D110BD13F8014D01F8014DF7E700000B
:1029B00038B50546002943D051F8043C0C1F002BC4
:1029C000B8BFE41800F0D0F81E4A1368104633B9B7
:1029D000636014602846BDE8384000F0C6B8A342E2
:1029E0000BD921686218934201BF1A685B685218BC
:1029F000226063600460EDE713465A680AB1A242A0
:102A0000FAD919685818A0420BD120680144581807
:102A100082421960DED110685268014419605A6020
:102A2000D8E702D90C232B60D4E7206821188A420A
:102A300001BF116852680918216062605C60C9E7D3
:102A400038BD00BF6446002070B5CD1C25F00305DD
:102A500008350C2D38BF0C25002D064601DBA94298
:102A600003D90C233360002070BD00F07DF8214AAB
:102A70001468214691B9204C23681BB9304600F0F8
:102A800063F820602946304600F05EF8431C24D1EC
:102A90000C233046336000F068F8E4E70B685B1BFA
:102AA00018D40B2B0FD90B60CC18CD50304600F04A
:102AB0005CF804F10B00231D20F00700C31AD3D0EB
:102AC0005A42E250D0E74B688C4216BF63601360F5
:102AD0000C46EBE70C464968CCE7C41C24F0030421
:102AE000A04205D0211A304600F02EF80130CFD098
:102AF0002560DBE76446002068460020F8B50746FD
:102B000014460E4621B9BDE8F8401146FFF79CBFB8
:102B100022B9FFF74DFF25462846F8BD00F026F8FC
:102B2000A0420FD221463846FFF78EFF0546002807
:102B3000F2D031462246FFF7F5FB31463846FFF723
:102B400037FFE9E73546E7E738B50023054C05468A
:102B500008462360FDF716FC431C02D1236803B12D
:102B60002B6038BD6C4600207047704751F8043C1C
:102B7000181F002BBCBF0B58C018704753746163FB
:102B80006B206672616D653A0A00000020523020A9
:102B90003D2020253038580A000000002052312006
:102BA0003D2020253038580A0000000020523220F5
:102BB0003D2020253038580A0000000020523320E4
:102BC0003D2020253038580A0000000020523132C4
:102BD000203D20253038580A00000000204C5220AB
:102BE0003D2020253038580A0000000020504320A6
:102BF0003D2020253038580A000000002050535254
:102C0000203D20253038580A000000004653522F3E
:102C10004641523A0A0000002043465352203D20CC
:102C200020253038580A00002048465352203D20C5
:102C300020253038580A00002044465352203D20B9
:102C400020253038580A00002041465352203D20AC
:102C500020253038580A0000204D4D464152203D75
:102C600020253038580A00002042464152203D209D
:102C700020253038580A00004D6973630A000000AF
:102C8000204C522F4558435F52455455524E3D20DB
:102C9000253038580A0000005B486172644661754F
:102CA0006C745D0A000000005B4275734661756CD0
:102CB000745D0A005B55736167654661756C745D90
:102CC0000A0000004D6F68616D656446617261675E
:102CD0006973676F6F6400000A0000000000000065
:102CE000000000000000F03F0500000000000000B0
:102CF00000000000000024400000000000003440FC
:102D00000000000000003E40040000000000000140
:102D1000000000000000000014000000000000009F
:102D2000000000000000F03F05000000000000006F
:102D300000000000000008400000000000001040FB
:102D40000000000000001840040001000000010124
:102D50000000000000000000000000000000204013
:102D6000000000000000224000000000000024409D
:102D7000010400000001000000000000000000004D
:102D80000000000000002040000000000000224081
:102D900000000000000024400104010000010000C8
:102DA00000000000000000004D6F68616D65644622
:102DB000617261676973676F6F6400005461736B60
:102DC0005F3100005461736B5F32000049444C4531
:102DD00000000000232D302B2000686C4C0065663D
:102DE000674546470030313233343536373839415C
:102DF0004243444546003031323334353637383972
:072E00006162636465660076
:102E080078563412B80000200000000000000000CE
:102E180000000000010203040607080900A24A0492
:102E28000016FFFF0403FFFF140EFFFF0A0CFFFF4D
:102E38000000000001000000010001000100000086
:102E4800AAAAAAAA4800002000000000000000006A
:102E5800000000000000000000000000000000006A
:102E6800000000000000000000000000000000005A
:102E7800000000000000000000000000000000004A
:102E8800000000000000000000000000000000003A
:102E9800000000000000000000000000000000002A
:0C2EA8000000000000000000325476988A
:040000050800010DE1
:00000001FF
